0185720534001612025010100154+40017-105050FM-15+156499999V0200601N001512200059N016093199-00151-00941999999ADDGD12991+0243819GE19AGL   +99999+99999GF104995999999024381999999MA1102031999999REMMET076METAR KEIK 010015Z AUTO 06003KT 10SM SCT080 M01/M09 A3013 RMK AO2 T10151094=EQDD01      0ADE726
0166720534001612025010100354+40017-105050FM-15+156499999V0200801N002610259119N016093199-00151-00961999999ADDGD14991+0259199GE19AGL   +99999+99999GF199999999999025911999999MA1102071999999REMMET076METAR KEIK 010035Z AUTO 08005KT 10SM OVC085 M01/M10 A3014 RMK AO2 T10151096=
0166720534001612025010100554+40017-105050FM-15+156499999V0200901N002110259119N016093199-00131-00961999999ADDGD14991+0259199GE19AGL   +99999+99999GF199999999999025911999999MA1102101999999REMMET076METAR KEIK 010055Z AUTO 09004KT 10SM OVC085 M01/M10 A3015 RMK AO2 T10131096=
0210720534001612025010101154+40017-105050FM-15+156499999V0200901N002110259119N016093199-00181-00911999999ADDGD11991+0125019GD22991+0149419GD33991+0259119GE19AGL   +99999+99999GF199999999999012501999999MA1102131999999REMMET090METAR KEIK 010115Z AUTO 09004KT 10SM FEW041 SCT049 BKN085 M02/M09 A3016 RMK AO2 T10181091=
0188720534001612025010101354+40017-105050FM-15+156499999V0201201N002610149419N016093199-00171-00931999999ADDGD12991+0125019GD23991+0149419GE19AGL   +99999+99999GF199999999999012501999999MA1102131999999REMMET083METAR KEIK 010135Z AUTO 12005KT 10SM SCT041 BKN049 M02/M09 A3016 RMK AO2 T10171093=
0188720534001612025010101554+40017-105050FM-15+156499999V0201201N002610228619N016093199-00151-00931999999ADDGD11991+0125019GD23991+0228619GE19AGL   +99999+99999GF199999999999012501999999MA1102171999999REMMET083METAR KEIK 010155Z AUTO 12005KT 10SM FEW041 BKN075 M02/M09 A3017 RMK AO2 T10151093=
0188720534001612025010102154+40017-105050FM-15+156499999V0201401N002610134119N016093199-00141-00931999999ADDGD13991+0134119GD23991+0228619GE19AGL   +99999+99999GF199999999999013411999999MA1102201999999REMMET083METAR KEIK 010215Z AUTO 14005KT 10SM BKN044 BKN075 M01/M09 A3018 RMK AO2 T10141093=
0166720534001612025010102354+40017-105050FM-15+156499999V0201801N003110134119N016093199-00171-00661999999ADDGD14991+0134119GE19AGL   +99999+99999GF199999999999013411999999MA1102231999999REMMET076METAR KEIK 010235Z AUTO 18006KT 10SM OVC044 M02/M07 A3019 RMK AO2 T10171066=
0188720534001612025010102554+40017-105050FM-15+156499999V0209999C000010094519N016093199-00221-00461999999ADDGD13991+0094519GD24991+0128019GE19AGL   +99999+99999GF199999999999009451999999MA1102271999999REMMET083METAR KEIK 010255Z AUTO 00000KT 10SM BKN031 OVC042 M02/M05 A3020 RMK AO2 T10221046=
0220720534001612025010103154+40017-105050FM-15+156499999V0209999C000010100619N016093199-00221-00431999999ADDGD11991+0033519GD22991+0057919GD34991+0100619GE19AGL   +99999+99999GF199999999999003351999999MA1102271999999REMMET100METAR KEIK 010315Z AUTO 00000KT 10SM FEW011 SCT019 OVC033 M02/M04 A3020 RMK AO2 FEW V SCT T10221043=
0243720534001612025010103354+40017-105050FM-15+156499999V0201101N002110054919N004828199-00281-00491999999ADDAA101000021AW1101AW2711GD12991+0039619GD24991+0054919GE19AGL   +99999+99999GF199999999999003961999999MA1102271999999REMMET115METAR KEIK 010335Z AUTO 11004KT 3SM -SN BR SCT013 OVC018 M03/M05 A3020 RMK AO2 UPB0319E0322SNB0322 P0000 T10281049=
0204720534001612025010103554+40017-105050FM-15+156499999V0201501N002110042719N014484199-00301-00491999999ADDAA101000021AW1711GD14991+0061011GE19AGL   +99999+99999GF199999999999006101999999MA1102271999999REMMET097METAR KEIK 010355Z AUTO 15004KT 9SM -SN OVC020 M03/M05 A3020 RMK AO2 CIG 014V024 P0000 T10301049=
0250720534001612025010104154+40017-105050FM-15+156499999V0201301N003110061019N016093199-00351-00471999999ADDAA101000021AW1711GD13991+0061019GD23991+0106719GD34991+0149419GE19AGL   +99999+99999GF199999999999006101999999MA1102271999999REMMET113METAR KEIK 010415Z AUTO 13006KT 10SM -SN BKN020 BKN035 OVC049 M03/M05 A3020 RMK AO2 BKN020 V SCT P0000 T10351047=
0249720534001612025010104354+40017-105050FM-15+156499999V0201701N003610082319N014484199-00341-00441999999ADDAA101000021AW1711GD12991+0064019GD23991+0082319GD34991+0125019GE19AGL   +99999+99999GF199999999999006401999999MA1102301999999REMMET112METAR KEIK 010435Z AUTO 17007KT 9SM -SN SCT021 BKN027 OVC041 M03/M04 A3021 RMK AO2 SNE0417B0434 P0000 T10341044=
0224720534001612025010104554+40017-105050FM-15+156499999V0201201N002610088419N012875199-00411-00471999999ADDAA101000021AW1711GD11991+0067119GD24991+0088419GE19AGL   +99999+99999GF199999999999006711999999MA1102271999999REMMET102METAR KEIK 010455Z AUTO 12005KT 8SM -SN FEW022 OVC029 M04/M05 A3020 RMK AO2 OVC V BKN P0000 T10411047=
0210720534001612025010105154+40017-105050FM-15+156499999V0201401N002612200059N016093199-00441-00481999999ADDAA101000021GD12991+0067119GE19AGL   +99999+99999GF104995999999006711999999MA1102271999999REMMET090METAR KEIK 010515Z AUTO 14005KT 10SM SCT022 M04/M05 A3020 RMK AO2 SNE0504 P0000 T10441048=EQDD01      0ADE726
0151720534001612025010105354+40017-105050FM-15+156499999V0201501N001512200019N016093199-00561-00601999999ADDAA101000021GF100991999999999999999999MA1102301999999REMMET087METAR KEIK 010535Z AUTO 15003KT 10SM CLR M06/M06 A3021 RMK AO2 SNE0504 P0000 T10561060=
0185720534001612025010105554+40017-105050FM-15+156499999V0201701N003112200059N016093199-00531-00571999999ADDGD11991+0024419GE19AGL   +99999+99999GF102995999999002441999999MA1102301999999REMMET076METAR KEIK 010555Z AUTO 17006KT 10SM FEW008 M05/M06 A3021 RMK AO2 T10531057=EQDD01      0ADE726
0185720534001612025010106154+40017-105050FM-15+156499999V0201301N001512200059N016093199-00621-00651999999ADDGD11991+0067119GE19AGL   +99999+99999GF102995999999006711999999MA1102271999999REMMET076METAR KEIK 010615Z AUTO 13003KT 10SM FEW022 M06/M07 A3020 RMK AO2 T10621065=EQDD01      0ADE726
0185720534001612025010106354+40017-105050FM-15+156499999V0202001N002612200059N016093199-00711-00731999999ADDGD11991+0067119GE19AGL   +99999+99999GF102995999999006711999999MA1102231999999REMMET076METAR KEIK 010635Z AUTO 20005KT 10SM FEW022 M07/M07 A3019 RMK AO2 T10711073=EQDD01      0ADE726
0126720534001612025010106554+40017-105050FM-15+156499999V0201901N003112200019N016093199-00701-00731999999ADDGF100991999999999999999999MA1102231999999REMMET073METAR KEIK 010655Z AUTO 19006KT 10SM CLR M07/M07 A3019 RMK AO2 T10701073=
0169720534001612025010107157+40017-105050FM-15+1564KEIK V0201705N002152200059N0160935N5-00725-00755999999ADDGA1005+999999999GD10991+9999999GF100991999999999999999999MA1102205084645REMMET08501/01/25 00:15:02 METAR KEIK 010715Z 17004KT 10SM CLR M07/M07 A3018 RMK AO2 T10721075
0169720534001612025010107357+40017-105050FM-15+1564KEIK V0209999C000052200059N0160935N5-00905-00945999999ADDGA1005+999999999GD10991+9999999GF100991999999999999999999MA1102175084615REMMET08501/01/25 00:35:02 METAR KEIK 010735Z 00000KT 10SM CLR M09/M09 A3017 RMK AO2 T10901094
0169720534001612025010107557+40017-105050FM-15+1564KEIK V0201805N001552200059N0160935N5-00885-00905999999ADDGA1005+999999999GD10991+9999999GF100991999999999999999999MA1102175084615REMMET08501/01/25 00:55:02 METAR KEIK 010755Z 18003KT 10SM CLR M09/M09 A3017 RMK AO2 T10881090
0169720534001612025010108157+40017-105050FM-15+1564KEIK V0201605N001552200059N0160935N5-00885-00915999999ADDGA1005+999999999GD10991+9999999GF100991999999999999999999MA1102175084615REMMET08501/01/25 01:15:02 METAR KEIK 010815Z 16003KT 10SM CLR M09/M09 A3017 RMK AO2 T10881091
0169720534001612025010108357+40017-105050FM-15+1564KEIK V0209999C000052200059N0160935N5-00745-00795999999ADDGA1005+999999999GD10991+9999999GF100991999999999999999999MA1102175084615REMMET08501/01/25 01:35:02 METAR KEIK 010835Z 00000KT 10SM CLR M07/M08 A3017 RMK AO2 T10741079
0169720534001612025010108557+40017-105050FM-15+1564KEIK V0209999C000052200059N0160935N5-00955-01015999999ADDGA1005+999999999GD10991+9999999GF100991999999999999999999MA1102175084615REMMET08501/01/25 01:55:02 METAR KEIK 010855Z 00000KT 10SM CLR M10/M10 A3017 RMK AO2 T10951101
0169720534001612025010109157+40017-105050FM-15+1564KEIK V0209999C000052200059N0160935N5-00985-01035999999ADDGA1005+999999999GD10991+9999999GF100991999999999999999999MA1102175084615REMMET08501/01/25 02:15:02 METAR KEIK 010915Z 00000KT 10SM CLR M10/M10 A3017 RMK AO2 T10981103
0169720534001612025010109357+40017-105050FM-15+1564KEIK V0209999C000052200059N0160935N5-00825-00865999999ADDGA1005+999999999GD10991+9999999GF100991999999999999999999MA1102175084615REMMET08501/01/25 02:35:02 METAR KEIK 010935Z 00000KT 10SM CLR M08/M09 A3017 RMK AO2 T10821086
0169720534001612025010109557+40017-105050FM-15+1564KEIK V0209999C000052200059N0160935N5-01015-01075999999ADDGA1005+999999999GD10991+9999999GF100991999999999999999999MA1102175084615REMMET08501/01/25 02:55:02 METAR KEIK 010955Z 00000KT 10SM CLR M10/M11 A3017 RMK AO2 T11011107
0169720534001612025010110157+40017-105050FM-15+1564KEIK V0209999C000052200059N0160935N5-00995-01085999999ADDGA1005+999999999GD10991+9999999GF100991999999999999999999MA1102135084585REMMET08501/01/25 03:15:02 METAR KEIK 011015Z 00000KT 10SM CLR M10/M11 A3016 RMK AO2 T10991108
0169720534001612025010110357+40017-105050FM-15+1564KEIK V0209999C000052200059N0160935N5-01085-01145999999ADDGA1005+999999999GD10991+9999999GF100991999999999999999999MA1102135084585REMMET08501/01/25 03:35:02 METAR KEIK 011035Z 00000KT 10SM CLR M11/M11 A3016 RMK AO2 T11081114
0213720534001612025010110557+40017-105050FM-15+1564KEIK V0209999C000052200059N0160935N5-01035-01125999999ADDGA1025+051825999GD11991+0518259GE19AGL   +99999+99999GF102995999999051821999999MA1102105084555REMMET08801/01/25 03:55:02 METAR KEIK 011055Z 00000KT 10SM FEW170 M10/M11 A3015 RMK AO2 T11031112EQDD01      0ADE726
0169720534001612025010111157+40017-105050FM-15+1564KEIK V0201805N002652200059N0160935N5-00945-01125999999ADDGA1005+999999999GD10991+9999999GF100991999999999999999999MA1102035084495REMMET08501/01/25 04:15:02 METAR KEIK 011115Z 18005KT 10SM CLR M09/M11 A3013 RMK AO2 T10941112
0169720534001612025010111357+40017-105050FM-15+1564KEIK V0201405N001552200059N0160935N5-00995-01195999999ADDGA1005+999999999GD10991+9999999GF100991999999999999999999MA1102035084495REMMET08501/01/25 04:35:02 METAR KEIK 011135Z 14003KT 10SM CLR M10/M12 A3013 RMK AO2 T10991119
0169720534001612025010111557+40017-105050FM-15+1564KEIK V0203205N002152200059N0160935N5-00975-01205999999ADDGA1005+999999999GD10991+9999999GF100991999999999999999999MA1102075084525REMMET08501/01/25 04:55:02 METAR KEIK 011155Z 32004KT 10SM CLR M10/M12 A3014 RMK AO2 T10971120
0169720534001612025010112157+40017-105050FM-15+1564KEIK V0209999C000052200059N0160935N5-01045-01135999999ADDGA1005+999999999GD10991+9999999GF100991999999999999999999MA1102075084525REMMET08501/01/25 05:15:02 METAR KEIK 011215Z 00000KT 10SM CLR M10/M11 A3014 RMK AO2 T11041113
0169720534001612025010112357+40017-105050FM-15+1564KEIK V0201005N002152200059N0160935N5-01265-01345999999ADDGA1005+999999999GD10991+9999999GF100991999999999999999999MA1102035084495REMMET08501/01/25 05:35:02 METAR KEIK 011235Z 10004KT 10SM CLR M13/M13 A3013 RMK AO2 T11261134
0169720534001612025010112557+40017-105050FM-15+1564KEIK V0209999C000052200059N0160935N5-01295-01405999999ADDGA1005+999999999GD10991+9999999GF100991999999999999999999MA1102035084495REMMET08501/01/25 05:55:02 METAR KEIK 011255Z 00000KT 10SM CLR M13/M14 A3013 RMK AO2 T11291140
0169720534001612025010113157+40017-105050FM-15+1564KEIK V0209999C000052200059N0160935N5-01325-01435999999ADDGA1005+999999999GD10991+9999999GF100991999999999999999999MA1102035084495REMMET08501/01/25 06:15:02 METAR KEIK 011315Z 00000KT 10SM CLR M13/M14 A3013 RMK AO2 T11321143
0169720534001612025010113357+40017-105050FM-15+1564KEIK V0209999C000052200059N0160935N5-01355-01465999999ADDGA1005+999999999GD10991+9999999GF100991999999999999999999MA1102035084495REMMET08501/01/25 06:35:02 METAR KEIK 011335Z 00000KT 10SM CLR M14/M15 A3013 RMK AO2 T11351146
0169720534001612025010113557+40017-105050FM-15+1564KEIK V0209999C000052200059N0160935N5-01335-01455999999ADDGA1005+999999999GD10991+9999999GF100991999999999999999999MA1102005084465REMMET08501/01/25 06:55:02 METAR KEIK 011355Z 00000KT 10SM CLR M13/M14 A3012 RMK AO2 T11331145
0169720534001612025010114157+40017-105050FM-15+1564KEIK V0209999C000052200059N0160935N5-01345-01455999999ADDGA1005+999999999GD10991+9999999GF100991999999999999999999MA1101965084435REMMET08501/01/25 07:15:02 METAR KEIK 011415Z 00000KT 10SM CLR M13/M15 A3011 RMK AO2 T11341145
0168720534001612025010114357+40017-105050FM-15+1564KEIK V0209999C000052200059N0144845N5-01285-01425999999ADDGA1005+999999999GD10991+9999999GF100991999999999999999999MA1102005084465REMMET08401/01/25 07:35:02 METAR KEIK 011435Z 00000KT 9SM CLR M13/M14 A3012 RMK AO2 T11281142
0169720534001612025010114557+40017-105050FM-15+1564KEIK V0201405N002152200059N0160935N5-01285-01405999999ADDGA1005+999999999GD10991+9999999GF100991999999999999999999MA1101965084435REMMET08501/01/25 07:55:02 METAR KEIK 011455Z 14004KT 10SM CLR M13/M14 A3011 RMK AO2 T11281140
0169720534001612025010115157+40017-105050FM-15+1564KEIK V0209999C000052200059N0160935N5-01015-01185999999ADDGA1005+999999999GD10991+9999999GF100991999999999999999999MA1101965084435REMMET08501/01/25 08:15:02 METAR KEIK 011515Z 00000KT 10SM CLR M10/M12 A3011 RMK AO2 T11011118
0168720534001612025010115357+40017-105050FM-15+1564KEIK V0209999C000052200059N0144845N5-01005-01175999999ADDGA1005+999999999GD10991+9999999GF100991999999999999999999MA1102005084465REMMET08401/01/25 08:35:02 METAR KEIK 011535Z 00000KT 9SM CLR M10/M12 A3012 RMK AO2 T11001117
0169720534001612025010115557+40017-105050FM-15+1564KEIK V0209999C000052200059N0160935N5-00855-01065999999ADDGA1005+999999999GD10991+9999999GF100991999999999999999999MA1102005084465REMMET08501/01/25 08:55:02 METAR KEIK 011555Z 00000KT 10SM CLR M08/M11 A3012 RMK AO2 T10851106
0169720534001612025010116157+40017-105050FM-15+1564KEIK V0209999C000052200059N0160935N5-00615-00885999999ADDGA1005+999999999GD10991+9999999GF100991999999999999999999MA1102005084465REMMET08501/01/25 09:15:02 METAR KEIK 011615Z 00000KT 10SM CLR M06/M09 A3012 RMK AO2 T10611088
0169720534001612025010116357+40017-105050FM-15+1564KEIK V0209999C000052200059N0160935N5-00585-00845999999ADDGA1005+999999999GD10991+9999999GF100991999999999999999999MA1102005084465REMMET08501/01/25 09:35:02 METAR KEIK 011635Z 00000KT 10SM CLR M06/M08 A3012 RMK AO2 T10581084
0169720534001612025010116557+40017-105050FM-15+1564KEIK V0209999C000052200059N0160935N5-00515-00845999999ADDGA1005+999999999GD10991+9999999GF100991999999999999999999MA1101965084435REMMET08501/01/25 09:55:02 METAR KEIK 011655Z 00000KT 10SM CLR M05/M08 A3011 RMK AO2 T10511084
0169720534001612025010117157+40017-105050FM-15+1564KEIK V0209999C000052200059N0160935N5-00535-00905999999ADDGA1005+999999999GD10991+9999999GF100991999999999999999999MA1101965084435REMMET08501/01/25 10:15:02 METAR KEIK 011715Z 00000KT 10SM CLR M05/M09 A3011 RMK AO2 T10531090
0169720534001612025010117357+40017-105050FM-15+1564KEIK V0209999C000052200059N0160935N5-00445-00855999999ADDGA1005+999999999GD10991+9999999GF100991999999999999999999MA1101905084375REMMET08501/01/25 10:35:02 METAR KEIK 011735Z 00000KT 10SM CLR M04/M09 A3009 RMK AO2 T10441085
0169720534001612025010117557+40017-105050FM-15+1564KEIK V0209999V001552200059N0160935N5-00255-00825999999ADDGA1005+999999999GD10991+9999999GF100991999999999999999999MA1101865084345REMMET08501/01/25 10:55:02 METAR KEIK 011755Z VRB03KT 10SM CLR M02/M08 A3008 RMK AO2 T10251082
0169720534001612025010118157+40017-105050FM-15+1564KEIK V0201205N001552200059N0160935N5-00155-00845999999ADDGA1005+999999999GD10991+9999999GF100991999999999999999999MA1101765084265REMMET08501/01/25 11:15:02 METAR KEIK 011815Z 12003KT 10SM CLR M01/M08 A3005 RMK AO2 T10151084
0169720534001612025010118357+40017-105050FM-15+1564KEIK V0209999V001552200059N0160935N5-00045-00825999999ADDGA1005+999999999GD10991+9999999GF100991999999999999999999MA1101735084235REMMET08501/01/25 11:35:02 METAR KEIK 011835Z VRB03KT 10SM CLR M00/M08 A3004 RMK AO2 T10041082
0168720534001612025010118557+40017-105050FM-15+1564KEIK V0201505N003652200059N0160935N5+00105-00935999999ADDGA1005+999999999GD10991+9999999GF100991999999999999999999MA1101635084145REMMET08401/01/25 11:55:02 METAR KEIK 011855Z 15007KT 10SM CLR 01/M09 A3001 RMK AO2 T00101093
0168720534001612025010119157+40017-105050FM-15+1564KEIK V0200905N002652200059N0160935N5+00085-01115999999ADDGA1005+999999999GD10991+9999999GF100991999999999999999999MA1101595084115REMMET08401/01/25 12:15:02 METAR KEIK 011915Z 09005KT 10SM CLR 01/M11 A3000 RMK AO2 T00081111
0168720534001612025010119357+40017-105050FM-15+1564KEIK V0200805N003652200059N0160935N5+00215-00985999999ADDGA1005+999999999GD10991+9999999GF100991999999999999999999MA1101565084085REMMET08401/01/25 12:35:02 METAR KEIK 011935Z 08007KT 10SM CLR 02/M10 A2999 RMK AO2 T00211098
0212720534001612025010119557+40017-105050FM-15+1564KEIK V0200905N004152200059N0160935N5+00185-01075999999ADDGA1025+064015999GD11991+0640159GE19AGL   +99999+99999GF102995999999064011999999MA1101525084055REMMET08701/01/25 12:55:02 METAR KEIK 011955Z 09008KT 10SM FEW210 02/M11 A2998 RMK AO2 T00181107EQDD01      0ADE726
0168720534001612025010120157+40017-105050FM-15+1564KEIK V0201005N004652200059N0160935N5+00245-01065999999ADDGA1005+999999999GD10991+9999999GF100991999999999999999999MA1101525084055REMMET08401/01/25 13:15:02 METAR KEIK 012015Z 10009KT 10SM CLR 02/M11 A2998 RMK AO2 T00241106
0168720534001612025010120357+40017-105050FM-15+1564KEIK V0201005N003652200059N0160935N5+00435-01005999999ADDGA1005+999999999GD10991+9999999GF100991999999999999999999MA1101465084005REMMET08401/01/25 13:35:02 METAR KEIK 012035Z 10007KT 10SM CLR 04/M10 A2996 RMK AO2 T00431100
0212720534001612025010120557+40017-105050FM-15+1564KEIK V0200305N004152200059N0160935N5+00415-00875999999ADDGA1025+060965999GD11991+0609659GE19AGL   +99999+99999GF102995999999060961999999MA1101425083975REMMET08701/01/25 13:55:02 METAR KEIK 012055Z 03008KT 10SM FEW200 04/M09 A2995 RMK AO2 T00411087EQDD01      0ADE726
0168720534001612025010121157+40017-105050FM-15+1564KEIK V0209999V002652200059N0160935N5+00495-00995999999ADDGA1005+999999999GD10991+9999999GF100991999999999999999999MA1101395083945REMMET08401/01/25 14:15:02 METAR KEIK 012115Z VRB05KT 10SM CLR 05/M10 A2994 RMK AO2 T00491099
0179720534001612025010121357+40017-105050FM-15+1564KEIK V0202405N007252200059N0160935N5+00705-01245999999ADDGA1005+999999999GD10991+9999999GF100991999999999999999999MA1101355083915OC100985REMMET08701/01/25 14:35:02 METAR KEIK 012135Z 24014G19KT 10SM CLR 07/M12 A2993 RMK AO2 T00701124
0168720534001612025010121557+40017-105050FM-15+1564KEIK V0202705N005752200059N0160935N5+00725-01245999999ADDGA1005+999999999GD10991+9999999GF100991999999999999999999MA1101355083915REMMET08401/01/25 14:55:02 METAR KEIK 012155Z 27011KT 10SM CLR 07/M12 A2993 RMK AO2 T00721124
0168720534001612025010122157+40017-105050FM-15+1564KEIK V0202705N005152200059N0160935N5+00725-01265999999ADDGA1005+999999999GD10991+9999999GF100991999999999999999999MA1101395083945REMMET08401/01/25 15:15:02 METAR KEIK 012215Z 27010KT 10SM CLR 07/M13 A2994 RMK AO2 T00721126
0168720534001612025010122357+40017-105050FM-15+1564KEIK V0202605N004152200059N0160935N5+00725-01265999999ADDGA1005+999999999GD10991+9999999GF100991999999999999999999MA1101425083975REMMET08401/01/25 15:35:02 METAR KEIK 012235Z 26008KT 10SM CLR 07/M13 A2995 RMK AO2 T00721126
0168720534001612025010122557+40017-105050FM-15+1564KEIK V0209999V002152200059N0160935N5+00635-01325999999ADDGA1005+999999999GD10991+9999999GF100991999999999999999999MA1101465084005REMMET08401/01/25 15:55:02 METAR KEIK 012255Z VRB04KT 10SM CLR 06/M13 A2996 RMK AO2 T00631132
0179720534001612025010123157+40017-105050FM-15+1564KEIK V0202905N007752200059N0160935N5+00575-01265999999ADDGA1005+999999999GD10991+9999999GF100991999999999999999999MA1101465084005OC101245REMMET08701/01/25 16:15:02 METAR KEIK 012315Z 29015G24KT 10SM CLR 06/M13 A2996 RMK AO2 T00571126
0197720534001612025010123357+40017-105050FM-15+1564KEIK V0202805N011852200059N0160935N5+00555-01245999999ADDGA1005+999999999GD10991+9999999GF100991999999999999999999MA1101425083975OC101445REMMET10501/01/25 16:35:02 METAR KEIK 012335Z 28023G28KT 10SM CLR 06/M12 A2995 RMK AO2 PK WND 29034/2320 T00551124
0223720534001612025010123557+40017-105050FM-15+1564KEIK V0202705N007752200059N0160935N5+00545-01235999999ADDGA1025+082305999GD11991+0823059GE19AGL   +99999+99999GF102995999999082301999999MA1101465084005OC101545REMMET09001/01/25 16:55:02 METAR KEIK 012355Z 27015G30KT 10SM FEW270 05/M12 A2996 RMK AO2 T00541123EQDD01      0ADE726
0197720534001612025010200157+40017-105050FM-15+1564KEIK V0202705N008252200059N0160935N5+00545-01255999999ADDGA1005+999999999GD10991+9999999GF100991999999999999999999MA1101465084005OC101445REMMET10501/01/25 17:15:01 METAR KEIK 020015Z 27016G28KT 10SM CLR 05/M12 A2996 RMK AO2 PK WND 26028/0005 T00541125
0255720534001612025010200357+40017-105050FM-15+1564KEIK V0202805N004152200059N0160935N5+00505-01235999999ADDGA1025+060965999GD11991+0609659GE19AGL   +99999+99999GF102995999999060961999999MA1101425083975OC101085OD149901441260REMMET10801/01/25 17:35:01 METAR KEIK 020035Z 28008G21KT 10SM FEW200 05/M12 A2995 RMK AO2 PK WND 26028/0005 T00501123EQDD01      0ADE726
0223720534001612025010200557+40017-105050FM-15+1564KEIK V0202705N007252200059N0160935N5+00505-01195999999ADDGA1045+060965999GD12991+0609659GE19AGL   +99999+99999GF104995999999060961999999MA1101425083975OC101295REMMET09001/01/25 17:55:01 METAR KEIK 020055Z 27014G25KT 10SM SCT200 05/M12 A2995 RMK AO2 T00501119EQDD01      0ADE726
0234720534001612025010201157+40017-105050FM-15+1564KEIK V0202805N006752200059N0160935N5+00505-01165999999ADDGA1025+060965999GD11991+0609659GE19AGL   +99999+99999GF102995999999060961999999MA1101395083945OC101185REMMET10101/01/25 18:15:01 METAR KEIK 020115Z 28013G23KT 10SM FEW200 05/M12 A2994 RMK AO2 WSHFT 0059 T00501116EQDD01      0ADE726
0190720534001612025010201357+40017-105050FM-15+1564KEIK V0203105V005752200059N0160935N5+00385-01195999999ADDGA1005+999999999GD10991+9999999GF100991999999999999999999MA1101395083945OC101085REMMET09801/01/25 18:35:01 METAR KEIK 020135Z 31011G21KT 10SM CLR 04/M12 A2994 RMK AO2 WSHFT 0059 T00381119
0223720534001612025010201557+40017-105050FM-15+1564KEIK V0202705N004652200059N0160935N5+00475-01145999999ADDGA1025+091445999GD11991+0914459GE19AGL   +99999+99999GF102995999999091441999999MA1101395083945OC101085REMMET09001/01/25 18:55:01 METAR KEIK 020155Z 27009G21KT 10SM FEW300 05/M11 A2994 RMK AO2 T00471114EQDD01      0ADE726
0234720534001612025010202157+40017-105050FM-15+1564KEIK V0203305N004152200059N0160935N5+00375-01125999999ADDGA1025+091445999GD11991+0914459GE19AGL   +99999+99999GF102995999999091441999999MA1101425083975OC101085REMMET10101/01/25 19:15:01 METAR KEIK 020215Z 33008G21KT 10SM FEW300 04/M11 A2995 RMK AO2 WSHFT 0210 T00371112EQDD01      0ADE726
0205720534001612025010202357+40017-105050FM-15+1564KEIK V0203605N00315045725MN0160935N5-00225-00925999999ADDGA1075+045725999GD13991+0457259GE19AGL   +99999+99999GF199999999999045721999999MA1101495084035REMMET09901/01/25 19:35:01 METAR KEIK 020235Z 36006KT 10SM BKN150 M02/M09 A2997 RMK AO2 WSHFT 0210 T10221092
0194720534001612025010202557+40017-105050FM-15+1564KEIK V0203305N00265042675MN0160935N5-00275-00895999999ADDGA1085+042675999GD14991+0426759GE19AGL   +99999+99999GF199999999999042671999999MA1101525084055REMMET08801/01/25 19:55:01 METAR KEIK 020255Z 33005KT 10SM OVC140 M03/M09 A2998 RMK AO2 T10271089
0213720534001612025010203157+40017-105050FM-15+1564KEIK V0200605N001552200059N0160935N5-00325-00885999999ADDGA1045+045725999GD12991+0457259GE19AGL   +99999+99999GF104995999999045721999999MA1101565084085REMMET08801/01/25 20:15:02 METAR KEIK 020315Z 06003KT 10SM SCT150 M03/M09 A2999 RMK AO2 T10321088EQDD01      0ADE726
0169720534001612025010203357+40017-105050FM-15+1564KEIK V0203405N002152200059N0160935N5-00345-00885999999ADDGA1005+999999999GD10991+9999999GF100991999999999999999999MA1101565084085REMMET08501/01/25 20:35:02 METAR KEIK 020335Z 34004KT 10SM CLR M03/M09 A2999 RMK AO2 T10341088
0169720534001612025010203557+40017-105050FM-15+1564KEIK V0209999C000052200059N0160935N5-00345-00885999999ADDGA1005+999999999GD10991+9999999GF100991999999999999999999MA1101525084055REMMET08501/01/25 20:55:02 METAR KEIK 020355Z 00000KT 10SM CLR M03/M09 A2998 RMK AO2 T10341088
0169720534001612025010204157+40017-105050FM-15+1564KEIK V0200105N001552200059N0160935N5-00445-00925999999ADDGA1005+999999999GD10991+9999999GF100991999999999999999999MA1101525084055REMMET08501/01/25 21:15:02 METAR KEIK 020415Z 01003KT 10SM CLR M04/M09 A2998 RMK AO2 T10441092
0169720534001612025010204357+40017-105050FM-15+1564KEIK V0203405N003152200059N0160935N5-00085-00865999999ADDGA1005+999999999GD10991+9999999GF100991999999999999999999MA1101525084055REMMET08501/01/25 21:35:02 METAR KEIK 020435Z 34006KT 10SM CLR M01/M09 A2998 RMK AO2 T10081086
0169720534001612025010204557+40017-105050FM-15+1564KEIK V0209999C000052200059N0160935N5-00255-00905999999ADDGA1005+999999999GD10991+9999999GF100991999999999999999999MA1101525084055REMMET08501/01/25 21:55:02 METAR KEIK 020455Z 00000KT 10SM CLR M03/M09 A2998 RMK AO2 T10251090
0169720534001612025010205157+40017-105050FM-15+1564KEIK V0209999C000052200059N0160935N5-00375-00875999999ADDGA1005+999999999GD10991+9999999GF100991999999999999999999MA1101565084085REMMET08501/01/25 22:15:02 METAR KEIK 020515Z 00000KT 10SM CLR M04/M09 A2999 RMK AO2 T10371087
0169720534001612025010205357+40017-105050FM-15+1564KEIK V0201705N002152200059N0160935N5-00255-00835999999ADDGA1005+999999999GD10991+9999999GF100991999999999999999999MA1101595084115REMMET08501/01/25 22:35:02 METAR KEIK 020535Z 17004KT 10SM CLR M02/M08 A3000 RMK AO2 T10251083
0169720534001612025010205557+40017-105050FM-15+1564KEIK V0209999C000052200059N0160935N5-00215-00845999999ADDGA1005+999999999GD10991+9999999GF100991999999999999999999MA1101595084115REMMET08501/01/25 22:55:02 METAR KEIK 020555Z 00000KT 10SM CLR M02/M08 A3000 RMK AO2 T10211084
0169720534001612025010206157+40017-105050FM-15+1564KEIK V0209999C000052200059N0160935N5-00345-00855999999ADDGA1005+999999999GD10991+9999999GF100991999999999999999999MA1101635084145REMMET08501/01/25 23:15:02 METAR KEIK 020615Z 00000KT 10SM CLR M03/M09 A3001 RMK AO2 T10341085
0169720534001612025010206357+40017-105050FM-15+1564KEIK V0209999C000052200059N0160935N5-00335-00905999999ADDGA1005+999999999GD10991+9999999GF100991999999999999999999MA1101635084145REMMET08501/01/25 23:35:02 METAR KEIK 020635Z 00000KT 10SM CLR M03/M09 A3001 RMK AO2 T10331090
0169720534001612025010206557+40017-105050FM-15+1564KEIK V0209999C000052200059N0160935N5-00435-00945999999ADDGA1005+999999999GD10991+9999999GF100991999999999999999999MA1101595084115REMMET08501/01/25 23:55:02 METAR KEIK 020655Z 00000KT 10SM CLR M04/M09 A3000 RMK AO2 T10431094
0169720534001612025010207157+40017-105050FM-15+1564KEIK V0209999V001552200059N0160935N5-00305-00915999999ADDGA1005+999999999GD10991+9999999GF100991999999999999999999MA1101595084115REMMET08501/02/25 00:15:02 METAR KEIK 020715Z VRB03KT 10SM CLR M03/M09 A3000 RMK AO2 T10301091
0169720534001612025010207357+40017-105050FM-15+1564KEIK V0209999C000052200059N0160935N5-00485-00955999999ADDGA1005+999999999GD10991+9999999GF100991999999999999999999MA1101595084115REMMET08501/02/25 00:35:02 METAR KEIK 020735Z 00000KT 10SM CLR M05/M10 A3000 RMK AO2 T10481095
0169720534001612025010207557+40017-105050FM-15+1564KEIK V0209999C000052200059N0160935N5-00525-00915999999ADDGA1005+999999999GD10991+9999999GF100991999999999999999999MA1101595084115REMMET08501/02/25 00:55:02 METAR KEIK 020755Z 00000KT 10SM CLR M05/M09 A3000 RMK AO2 T10521091
0169720534001612025010208157+40017-105050FM-15+1564KEIK V0209999C000052200059N0160935N5-00565-00925999999ADDGA1005+999999999GD10991+9999999GF100991999999999999999999MA1101635084145REMMET08501/02/25 01:15:02 METAR KEIK 020815Z 00000KT 10SM CLR M06/M09 A3001 RMK AO2 T10561092
0169720534001612025010208357+40017-105050FM-15+1564KEIK V0209999C000052200059N0160935N5-00595-00915999999ADDGA1005+999999999GD10991+9999999GF100991999999999999999999MA1101695084205REMMET08501/02/25 01:35:02 METAR KEIK 020835Z 00000KT 10SM CLR M06/M09 A3003 RMK AO2 T10591091
0169720534001612025010208557+40017-105050FM-15+1564KEIK V0209999C000052200059N0160935N5-00575-00925999999ADDGA1005+999999999GD10991+9999999GF100991999999999999999999MA1101735084235REMMET08501/02/25 01:55:02 METAR KEIK 020855Z 00000KT 10SM CLR M06/M09 A3004 RMK AO2 T10571092
0169720534001612025010209157+40017-105050FM-15+1564KEIK V0209999C000052200059N0160935N5-00765-00995999999ADDGA1005+999999999GD10991+9999999GF100991999999999999999999MA1101765084265REMMET08501/02/25 02:15:02 METAR KEIK 020915Z 00000KT 10SM CLR M08/M10 A3005 RMK AO2 T10761099
0169720534001612025010209357+40017-105050FM-15+1564KEIK V0209999C000052200059N0160935N5-00715-00955999999ADDGA1005+999999999GD10991+9999999GF100991999999999999999999MA1101795084295REMMET08501/02/25 02:35:02 METAR KEIK 020935Z 00000KT 10SM CLR M07/M09 A3006 RMK AO2 T10711095
0169720534001612025010209557+40017-105050FM-15+1564KEIK V0209999C000052200059N0160935N5-00785-00985999999ADDGA1005+999999999GD10991+9999999GF100991999999999999999999MA1101795084295REMMET08501/02/25 02:55:02 METAR KEIK 020955Z 00000KT 10SM CLR M08/M10 A3006 RMK AO2 T10781098
0168720534001612025010210157+40017-105050FM-15+1564KEIK V0209999C000052200059N0144845N5-00815-00965999999ADDGA1005+999999999GD10991+9999999GF100991999999999999999999MA1101795084295REMMET08401/02/25 03:15:02 METAR KEIK 021015Z 00000KT 9SM CLR M08/M10 A3006 RMK AO2 T10811096
0168720534001612025010210357+40017-105050FM-15+1564KEIK V0201805N002152200059N0144845N5-00755-00935999999ADDGA1005+999999999GD10991+9999999GF100991999999999999999999MA1101795084295REMMET08401/02/25 03:35:02 METAR KEIK 021035Z 18004KT 9SM CLR M08/M09 A3006 RMK AO2 T10751093
0169720534001612025010210557+40017-105050FM-15+1564KEIK V0201705N003152200059N0160935N5-00575-00875999999ADDGA1005+999999999GD10991+9999999GF100991999999999999999999MA1101735084235REMMET08501/02/25 03:55:02 METAR KEIK 021055Z 17006KT 10SM CLR M06/M09 A3004 RMK AO2 T10571087
0213720534001612025010211157+40017-105050FM-15+1564KEIK V0209999C000052200059N0160935N5-00625-00905999999ADDGA1025+054865999GD11991+0548659GE19AGL   +99999+99999GF102995999999054861999999MA1101735084235REMMET08801/02/25 04:15:02 METAR KEIK 021115Z 00000KT 10SM FEW180 M06/M09 A3004 RMK AO2 T10621090EQDD01      0ADE726
0213720534001612025010211357+40017-105050FM-15+1564KEIK V0201005N001552200059N0160935N5-00615-00885999999ADDGA1025+054865999GD11991+0548659GE19AGL   +99999+99999GF102995999999054861999999MA1101765084265REMMET08801/02/25 04:35:02 METAR KEIK 021135Z 10003KT 10SM FEW180 M06/M09 A3005 RMK AO2 T10611088EQDD01      0ADE726
0250720534001612025010211557+40017-105050FM-15+1564KEIK V0209999C000052200059N0144845N5-00665-00895999999ADDGA1025+042675999GA2045+051825999GD11991+0426759GD22991+0518259GE19AGL   +99999+99999GF104995999999042671999999MA1101765084265REMMET09401/02/25 04:55:02 METAR KEIK 021155Z 00000KT 9SM FEW140 SCT170 M07/M09 A3005 RMK AO2 T10661089EQDD01      0ADE726
0212720534001612025010212157+40017-105050FM-15+1564KEIK V0200305N001552200059N0144845N5-00625-00885999999ADDGA1025+051825999GD11991+0518259GE19AGL   +99999+99999GF102995999999051821999999MA1101795084295REMMET08701/02/25 05:15:02 METAR KEIK 021215Z 03003KT 9SM FEW170 M06/M09 A3006 RMK AO2 T10621088EQDD01      0ADE726
0169720534001612025010212357+40017-105050FM-15+1564KEIK V0202305N001552200059N0160935N5-00685-00865999999ADDGA1005+999999999GD10991+9999999GF100991999999999999999999MA1101835084325REMMET08501/02/25 05:35:02 METAR KEIK 021235Z 23003KT 10SM CLR M07/M09 A3007 RMK AO2 T10681086
0168720534001612025010212557+40017-105050FM-15+1564KEIK V0209999C000052200059N0144845N5-00665-00865999999ADDGA1005+999999999GD10991+9999999GF100991999999999999999999MA1101835084325REMMET08401/02/25 05:55:02 METAR KEIK 021255Z 00000KT 9SM CLR M07/M09 A3007 RMK AO2 T10661086
0168720534001612025010213157+40017-105050FM-15+1564KEIK V0202005N002152200059N0144845N5-00645-00855999999ADDGA1005+999999999GD10991+9999999GF100991999999999999999999MA1101835084325REMMET08401/02/25 06:15:02 METAR KEIK 021315Z 20004KT 9SM CLR M06/M08 A3007 RMK AO2 T10641085
0168720534001612025010213357+40017-105050FM-15+1564KEIK V0202205N002652200059N0144845N5-00645-00845999999ADDGA1005+999999999GD10991+9999999GF100991999999999999999999MA1101865084345REMMET08401/02/25 06:35:02 METAR KEIK 021335Z 22005KT 9SM CLR M06/M08 A3008 RMK AO2 T10641084
0169720534001612025010213557+40017-105050FM-15+1564KEIK V0209999C000052200059N0160935N5-00585-00855999999ADDGA1005+999999999GD10991+9999999GF100991999999999999999999MA1101905084375REMMET08501/02/25 06:55:02 METAR KEIK 021355Z 00000KT 10SM CLR M06/M08 A3009 RMK AO2 T10581085
0168720534001612025010214157+40017-105050FM-15+1564KEIK V0209999C000052200059N0144845N5-00645-00875999999ADDGA1005+999999999GD10991+9999999GF100991999999999999999999MA1101865084345REMMET08401/02/25 07:15:02 METAR KEIK 021415Z 00000KT 9SM CLR M06/M09 A3008 RMK AO2 T10641087
0168720534001612025010214357+40017-105050FM-15+1564KEIK V0200805N001552200059N0128755N5-00635-00845999999ADDGA1005+999999999GD10991+9999999GF100991999999999999999999MA1101865084345REMMET08401/02/25 07:35:02 METAR KEIK 021435Z 08003KT 8SM CLR M06/M08 A3008 RMK AO2 T10631084
0212720534001612025010214557+40017-105050FM-15+1564KEIK V0209999C000052200059N0128755N5-00665-00855999999ADDGA1025+051825999GD11991+0518259GE19AGL   +99999+99999GF102995999999051821999999MA1101865084345REMMET08701/02/25 07:55:02 METAR KEIK 021455Z 00000KT 8SM FEW170 M07/M09 A3008 RMK AO2 T10661085EQDD01      0ADE726
0168720534001612025010215157+40017-105050FM-15+1564KEIK V0209999C000052200059N0128755N5-00695-00875999999ADDGA1005+999999999GD10991+9999999GF100991999999999999999999MA1101905084375REMMET08401/02/25 08:15:02 METAR KEIK 021515Z 00000KT 8SM CLR M07/M09 A3009 RMK AO2 T10691087
0169720534001612025010215357+40017-105050FM-15+1564KEIK V0209999C000052200059N0160935N5-00415-00755999999ADDGA1005+999999999GD10991+9999999GF100991999999999999999999MA1101965084435REMMET08501/02/25 08:35:02 METAR KEIK 021535Z 00000KT 10SM CLR M04/M07 A3011 RMK AO2 T10411075
0169720534001612025010215557+40017-105050FM-15+1564KEIK V0202705N002152200059N0160935N5-00255-00695999999ADDGA1005+999999999GD10991+9999999GF100991999999999999999999MA1102005084465REMMET08501/02/25 08:55:02 METAR KEIK 021555Z 27004KT 10SM CLR M02/M07 A3012 RMK AO2 T10251069
0169720534001612025010216157+40017-105050FM-15+1564KEIK V0202705N002152200059N0160935N5-00195-00645999999ADDGA1005+999999999GD10991+9999999GF100991999999999999999999MA1102005084465REMMET08501/02/25 09:15:02 METAR KEIK 021615Z 27004KT 10SM CLR M02/M06 A3012 RMK AO2 T10191064
0169720534001612025010216357+40017-105050FM-15+1564KEIK V0203105N002152200059N0160935N5-00115-00605999999ADDGA1005+999999999GD10991+9999999GF100991999999999999999999MA1102035084495REMMET08501/02/25 09:35:02 METAR KEIK 021635Z 31004KT 10SM CLR M01/M06 A3013 RMK AO2 T10111060
0169720534001612025010216557+40017-105050FM-15+1564KEIK V0209999C000052200059N0160935N5-00055-00625999999ADDGA1005+999999999GD10991+9999999GF100991999999999999999999MA1102035084495REMMET08501/02/25 09:55:02 METAR KEIK 021655Z 00000KT 10SM CLR M00/M06 A3013 RMK AO2 T10051062
0168720534001612025010217157+40017-105050FM-15+1564KEIK V0203305N002152200059N0160935N5+00065-00625999999ADDGA1005+999999999GD10991+9999999GF100991999999999999999999MA1102005084465REMMET08401/02/25 10:15:02 METAR KEIK 021715Z 33004KT 10SM CLR 01/M06 A3012 RMK AO2 T00061062
0168720534001612025010217357+40017-105050FM-15+1564KEIK V0209999C000052200059N0160935N5+00085-00635999999ADDGA1005+999999999GD10991+9999999GF100991999999999999999999MA1102005084465REMMET08401/02/25 10:35:02 METAR KEIK 021735Z 00000KT 10SM CLR 01/M06 A3012 RMK AO2 T00081063
0168720534001612025010217557+40017-105050FM-15+1564KEIK V0209999C000052200059N0160935N5+00235-00615999999ADDGA1005+999999999GD10991+9999999GF100991999999999999999999MA1101965084435REMMET08401/02/25 10:55:02 METAR KEIK 021755Z 00000KT 10SM CLR 02/M06 A3011 RMK AO2 T00231061
0212720534001612025010218157+40017-105050FM-15+1564KEIK V0209999V001552200059N0160935N5+00275-00615999999ADDGA1025+025915999GD11991+0259159GE19AGL   +99999+99999GF102995999999025911999999MA1101965084435REMMET08701/02/25 11:15:02 METAR KEIK 021815Z VRB03KT 10SM FEW085 03/M06 A3011 RMK AO2 T00271061EQDD01      0ADE726
0212720534001612025010218357+40017-105050FM-15+1564KEIK V0209999C000052200059N0160935N5+00425-00615999999ADDGA1025+027435999GD11991+0274359GE19AGL   +99999+99999GF102995999999027431999999MA1101905084375REMMET08701/02/25 11:35:02 METAR KEIK 021835Z 00000KT 10SM FEW090 04/M06 A3009 RMK AO2 T00421061EQDD01      0ADE726
0212720534001612025010218557+40017-105050FM-15+1564KEIK V0209999V002152200059N0160935N5+00505-00615999999ADDGA1025+027435999GD11991+0274359GE19AGL   +99999+99999GF102995999999027431999999MA1101935084405REMMET08701/02/25 11:55:02 METAR KEIK 021855Z VRB04KT 10SM FEW090 05/M06 A3010 RMK AO2 T00501061EQDD01      0ADE726
0212720534001612025010219157+40017-105050FM-15+1564KEIK V0200105N003152200059N0160935N5+00585-00605999999ADDGA1025+027435999GD11991+0274359GE19AGL   +99999+99999GF102995999999027431999999MA1101905084375REMMET08701/02/25 12:15:02 METAR KEIK 021915Z 01006KT 10SM FEW090 06/M06 A3009 RMK AO2 T00581060EQDD01      0ADE726
0212720534001612025010219357+40017-105050FM-15+1564KEIK V0200505V003652200059N0160935N5+00625-00635999999ADDGA1025+027435999GD11991+0274359GE19AGL   +99999+99999GF102995999999027431999999MA1101905084375REMMET08701/02/25 12:35:02 METAR KEIK 021935Z 05007KT 10SM FEW090 06/M06 A3009 RMK AO2 T00621063EQDD01      0ADE726
0212720534001612025010219557+40017-105050FM-15+1564KEIK V0209999V002152200059N0160935N5+00655-00625999999ADDGA1045+027435999GD12991+0274359GE19AGL   +99999+99999GF104995999999027431999999MA1101905084375REMMET08701/02/25 12:55:02 METAR KEIK 021955Z VRB04KT 10SM SCT090 07/M06 A3009 RMK AO2 T00651062EQDD01      0ADE726
0193720534001612025010220157+40017-105050FM-15+1564KEIK V0200505N00215025915MN0160935N5+00635-00665999999ADDGA1075+025915999GD13991+0259159GE19AGL   +99999+99999GF199999999999025911999999MA1101935084405REMMET08701/02/25 13:15:02 METAR KEIK 022015Z 05004KT 10SM BKN085 06/M07 A3010 RMK AO2 T00631066
0212720534001612025010220357+40017-105050FM-15+1564KEIK V0209999V002652200059N0160935N5+00785-00685999999ADDGA1025+025915999GD11991+0259159GE19AGL   +99999+99999GF102995999999025911999999MA1101905084375REMMET08701/02/25 13:35:02 METAR KEIK 022035Z VRB05KT 10SM FEW085 08/M07 A3009 RMK AO2 T00781068EQDD01      0ADE726
0179720534001612025010220557+40017-105050FM-15+1564KEIK V0203105N007252200059N0160935N5+00965-00745999999ADDGA1005+999999999GD10991+9999999GF100991999999999999999999MA1101905084375OC100985REMMET08701/02/25 13:55:02 METAR KEIK 022055Z 31014G19KT 10SM CLR 10/M07 A3009 RMK AO2 T00961074
0168720534001612025010221157+40017-105050FM-15+1564KEIK V0203205V003652200059N0160935N5+00985-00735999999ADDGA1005+999999999GD10991+9999999GF100991999999999999999999MA1101935084405REMMET08401/02/25 14:15:02 METAR KEIK 022115Z 32007KT 10SM CLR 10/M07 A3010 RMK AO2 T00981073
0168720534001612025010221357+40017-105050FM-15+1564KEIK V0209999V003152200059N0160935N5+00965-00735999999ADDGA1005+999999999GD10991+9999999GF100991999999999999999999MA1101965084435REMMET08401/02/25 14:35:02 METAR KEIK 022135Z VRB06KT 10SM CLR 10/M07 A3011 RMK AO2 T00961073
0168720534001612025010221557+40017-105050FM-15+1564KEIK V0200505N004652200059N0160935N5+00955-00745999999ADDGA1005+999999999GD10991+9999999GF100991999999999999999999MA1102005084465REMMET08401/02/25 14:55:02 METAR KEIK 022155Z 05009KT 10SM CLR 10/M07 A3012 RMK AO2 T00951074
0168720534001612025010222157+40017-105050FM-15+1564KEIK V0200605N004152200059N0160935N5+00925-00725999999ADDGA1005+999999999GD10991+9999999GF100991999999999999999999MA1102035084495REMMET08401/02/25 15:15:02 METAR KEIK 022215Z 06008KT 10SM CLR 09/M07 A3013 RMK AO2 T00921072
0168720534001612025010222357+40017-105050FM-15+1564KEIK V0200805N004152200059N0160935N5+00915-00705999999ADDGA1005+999999999GD10991+9999999GF100991999999999999999999MA1102035084495REMMET08401/02/25 15:35:02 METAR KEIK 022235Z 08008KT 10SM CLR 09/M07 A3013 RMK AO2 T00911070
0168720534001612025010222557+40017-105050FM-15+1564KEIK V0200805N004152200059N0160935N5+00795-00685999999ADDGA1005+999999999GD10991+9999999GF100991999999999999999999MA1102075084525REMMET08401/02/25 15:55:02 METAR KEIK 022255Z 08008KT 10SM CLR 08/M07 A3014 RMK AO2 T00791068
0168720534001612025010223157+40017-105050FM-15+1564KEIK V0200905N002652200059N0160935N5+00695-00685999999ADDGA1005+999999999GD10991+9999999GF100991999999999999999999MA1102075084525REMMET08401/02/25 16:15:02 METAR KEIK 022315Z 09005KT 10SM CLR 07/M07 A3014 RMK AO2 T00691068
0168720534001612025010223357+40017-105050FM-15+1564KEIK V0201005N002152200059N0160935N5+00525-00685999999ADDGA1005+999999999GD10991+9999999GF100991999999999999999999MA1102105084555REMMET08401/02/25 16:35:02 METAR KEIK 022335Z 10004KT 10SM CLR 05/M07 A3015 RMK AO2 T00521068
0168720534001612025010223557+40017-105050FM-15+1564KEIK V0200805N002652200059N0160935N5+00515-00685999999ADDGA1005+999999999GD10991+9999999GF100991999999999999999999MA1102135084585REMMET08401/02/25 16:55:02 METAR KEIK 022355Z 08005KT 10SM CLR 05/M07 A3016 RMK AO2 T00511068
0168720534001612025010300157+40017-105050FM-15+1564KEIK V0201705N002152200059N0160935N5+00215-00715999999ADDGA1005+999999999GD10991+9999999GF100991999999999999999999MA1102205084645REMMET08401/02/25 17:15:01 METAR KEIK 030015Z 17004KT 10SM CLR 02/M07 A3018 RMK AO2 T00211071
0168720534001612025010300357+40017-105050FM-15+1564KEIK V0201405N003152200059N0160935N5+00405-00645999999ADDGA1005+999999999GD10991+9999999GF100991999999999999999999MA1102205084645REMMET08401/02/25 17:35:01 METAR KEIK 030035Z 14006KT 10SM CLR 04/M06 A3018 RMK AO2 T00401064
0168720534001612025010300557+40017-105050FM-15+1564KEIK V0201205N004652200059N0160935N5+00555-00645999999ADDGA1005+999999999GD10991+9999999GF100991999999999999999999MA1102205084645REMMET08401/02/25 17:55:01 METAR KEIK 030055Z 12009KT 10SM CLR 05/M06 A3018 RMK AO2 T00551064
0168720534001612025010301157+40017-105050FM-15+1564KEIK V0201105N004152200059N0160935N5+00305-00655999999ADDGA1005+999999999GD10991+9999999GF100991999999999999999999MA1102245084665REMMET08401/02/25 18:15:01 METAR KEIK 030115Z 11008KT 10SM CLR 03/M06 A3019 RMK AO2 T00301065
0168720534001612025010301357+40017-105050FM-15+1564KEIK V0201105N003652200059N0160935N5+00255-00635999999ADDGA1005+999999999GD10991+9999999GF100991999999999999999999MA1102275084695REMMET08401/02/25 18:35:01 METAR KEIK 030135Z 11007KT 10SM CLR 02/M06 A3020 RMK AO2 T00251063
0168720534001612025010301557+40017-105050FM-15+1564KEIK V0209999V002152200059N0160935N5+00145-00655999999ADDGA1005+999999999GD10991+9999999GF100991999999999999999999MA1102305084725REMMET08401/02/25 18:55:01 METAR KEIK 030155Z VRB04KT 10SM CLR 01/M06 A3021 RMK AO2 T00141065
0168720534001612025010302157+40017-105050FM-15+1564KEIK V0209999C000052200059N0160935N5+00225-00645999999ADDGA1005+999999999GD10991+9999999GF100991999999999999999999MA1102375084785REMMET08401/02/25 19:15:01 METAR KEIK 030215Z 00000KT 10SM CLR 02/M06 A3023 RMK AO2 T00221064
0168720534001612025010302357+40017-105050FM-15+1564KEIK V0200205N002652200059N0160935N5+00115-00655999999ADDGA1005+999999999GD10991+9999999GF100991999999999999999999MA1102445084845REMMET08401/02/25 19:35:01 METAR KEIK 030235Z 02005KT 10SM CLR 01/M06 A3025 RMK AO2 T00111065
0168720534001612025010302557+40017-105050FM-15+1564KEIK V0200505N002652200059N0160935N5+00015-00635999999ADDGA1005+999999999GD10991+9999999GF100991999999999999999999MA1102405084815REMMET08401/02/25 19:55:01 METAR KEIK 030255Z 05005KT 10SM CLR 00/M06 A3024 RMK AO2 T00011063
0169720534001612025010303157+40017-105050FM-15+1564KEIK V0200105N003152200059N0160935N5-00125-00565999999ADDGA1005+999999999GD10991+9999999GF100991999999999999999999MA1102445084845REMMET08501/02/25 20:15:02 METAR KEIK 030315Z 01006KT 10SM CLR M01/M06 A3025 RMK AO2 T10121056
0169720534001612025010303357+40017-105050FM-15+1564KEIK V0203605N002152200059N0160935N5-00205-00475999999ADDGA1005+999999999GD10991+9999999GF100991999999999999999999MA1102445084845REMMET08501/02/25 20:35:02 METAR KEIK 030335Z 36004KT 10SM CLR M02/M05 A3025 RMK AO2 T10201047
0169720534001612025010303557+40017-105050FM-15+1564KEIK V0203605N002152200059N0160935N5-00275-00425999999ADDGA1005+999999999GD10991+9999999GF100991999999999999999999MA1102475084875REMMET08501/02/25 20:55:02 METAR KEIK 030355Z 36004KT 10SM CLR M03/M04 A3026 RMK AO2 T10271042
0168720534001612025010304157+40017-105050FM-15+1564KEIK V0203305N001552200059N0144845N5-00395-00455999999ADDGA1005+999999999GD10991+9999999GF100991999999999999999999MA1102515084905REMMET08401/02/25 21:15:02 METAR KEIK 030415Z 33003KT 9SM CLR M04/M04 A3027 RMK AO2 T10391045
0205720534001612025010304357+40017-105050FM-15+1564KEIK V0203505N00155001525MN0144845N5-00355-00375999999ADDGA1075+001525999GD13991+0015251GE19AGL   +99999+99999GF199999999999001521999999MA1102515084905REMMET09901/02/25 21:35:02 METAR KEIK 030435Z 35003KT 9SM BKN005 M03/M04 A3027 RMK AO2 CIG 004V006 T10351037
0193720534001612025010304557+40017-105050FM-15+1564KEIK V0209999C00005001525MN0144845N5-00465-00485999999ADDGA1085+001525999GD14991+0015259GE19AGL   +99999+99999GF199999999999001521999999MA1102515084905REMMET08701/02/25 21:55:02 METAR KEIK 030455Z 00000KT 9SM OVC005 M05/M05 A3027 RMK AO2 T10461048
0205720534001612025010305157+40017-105050FM-15+1564KEIK V0209999C00005000915MN0128755N5-00345-00355999999ADDGA1085+000915999GD14991+0009151GE19AGL   +99999+99999GF199999999999000911999999MA1102515084905REMMET09901/02/25 22:15:02 METAR KEIK 030515Z 00000KT 8SM OVC003 M03/M03 A3027 RMK AO2 CIG 002V006 T10341035
0205720534001612025010305357+40017-105050FM-15+1564KEIK V0203405N00155000915MN0112655N5-00305-00305999999ADDGA1085+000915999GD14991+0009151GE19AGL   +99999+99999GF199999999999000911999999MA1102515084905REMMET09901/02/25 22:35:02 METAR KEIK 030535Z 34003KT 7SM OVC003 M03/M03 A3027 RMK AO2 CIG 002V004 T10301030
0213720534001612025010305557+40017-105050FM-15+1564KEIK V0203205N00265000915MN0096565N5-00285-00285999999ADDAU100001015AW1105GA1085+000915999GD14991+0009159GE19AGL   +99999+99999GF199999999999000911999999MA1102545084935REMMET09001/02/25 22:55:02 METAR KEIK 030555Z 32005KT 6SM BR OVC003 M03/M03 A3028 RMK AO2 T10281028
0213720534001612025010306157+40017-105050FM-15+1564KEIK V0209999V00215000915MN0096565N5-00295-00295999999ADDAU100001015AW1105GA1085+000915999GD14991+0009159GE19AGL   +99999+99999GF199999999999000911999999MA1102515084905REMMET09001/02/25 23:15:02 METAR KEIK 030615Z VRB04KT 6SM BR OVC003 M03/M03 A3027 RMK AO2 T10291029
0213720534001612025010306357+40017-105050FM-15+1564KEIK V0200105N00265000615MN0080475N5-00295-00295999999ADDAU100001015AW1105GA1085+000615999GD14991+0006159GE19AGL   +99999+99999GF199999999999000611999999MA1102475084875REMMET09001/02/25 23:35:02 METAR KEIK 030635Z 01005KT 5SM BR OVC002 M03/M03 A3026 RMK AO2 T10291029
0213720534001612025010306557+40017-105050FM-15+1564KEIK V0200205N00215000615MN0064375N5-00305-00305999999ADDAU100001015AW1105GA1085+000615999GD14991+0006159GE19AGL   +99999+99999GF199999999999000611999999MA1102445084845REMMET09001/02/25 23:55:02 METAR KEIK 030655Z 02004KT 4SM BR OVC002 M03/M03 A3025 RMK AO2 T10301030
001572053400161202501030659O+40017-105050SOD  +1564KEIK V020999999999999999999999999999+99999+99999999999ADDAT1AU13BR  5
0213720534001612025010307157+40017-105050FM-15+1564KEIK V0209999C00005000615MN0064375N5-00325-00325999999ADDAU100001015AW1105GA1085+000615999GD14991+0006159GE19AGL   +99999+99999GF199999999999000611999999MA1102405084815REMMET09001/03/25 00:15:02 METAR KEIK 030715Z 00000KT 4SM BR OVC002 M03/M03 A3024 RMK AO2 T10321032
0213720534001612025010307357+40017-105050FM-15+1564KEIK V0200405N00155000615MN0096565N5-00325-00325999999ADDAU100001015AW1105GA1085+000615999GD14991+0006159GE19AGL   +99999+99999GF199999999999000611999999MA1102405084815REMMET09001/03/25 00:35:02 METAR KEIK 030735Z 04003KT 6SM BR OVC002 M03/M03 A3024 RMK AO2 T10321032
0213720534001612025010307557+40017-105050FM-15+1564KEIK V0209999C00005000615MN0080475N5-00345-00345999999ADDAU100001015AW1105GA1085+000615999GD14991+0006159GE19AGL   +99999+99999GF199999999999000611999999MA1102345084755REMMET09001/03/25 00:55:02 METAR KEIK 030755Z 00000KT 5SM BR OVC002 M03/M03 A3022 RMK AO2 T10341034
0213720534001612025010308157+40017-105050FM-15+1564KEIK V0209999C00005000615MN0064375N5-00335-00335999999ADDAU100001015AW1105GA1085+000615999GD14991+0006159GE19AGL   +99999+99999GF199999999999000611999999MA1102345084755REMMET09001/03/25 01:15:02 METAR KEIK 030815Z 00000KT 4SM BR OVC002 M03/M03 A3022 RMK AO2 T10331033
0213720534001612025010308357+40017-105050FM-15+1564KEIK V0203205N00215000615MN0064375N5-00345-00345999999ADDAU100001015AW1105GA1085+000615999GD14991+0006159GE19AGL   +99999+99999GF199999999999000611999999MA1102305084725REMMET09001/03/25 01:35:02 METAR KEIK 030835Z 32004KT 4SM BR OVC002 M03/M03 A3021 RMK AO2 T10341034
0213720534001612025010308557+40017-105050FM-15+1564KEIK V0209999C00005000615MN0080475N5-00355-00355999999ADDAU100001015AW1105GA1085+000615999GD14991+0006159GE19AGL   +99999+99999GF199999999999000611999999MA1102305084725REMMET09001/03/25 01:55:02 METAR KEIK 030855Z 00000KT 5SM BR OVC002 M04/M04 A3021 RMK AO2 T10351035
0217720534001612025010309157+40017-105050FM-15+1564KEIK V0209999C00005000615MN0040235N5-00365-00365999999ADDAU100001015AW1105GA1085+000615999GD14991+0006159GE19AGL   +99999+99999GF199999999999000611999999MA1102305084725REMMET09401/03/25 02:15:02 METAR KEIK 030915Z 00000KT 2 1/2SM BR OVC002 M04/M04 A3021 RMK AO2 T10361036
0213720534001612025010309357+40017-105050FM-15+1564KEIK V0202105N00155000615MN0064375N5-00345-00345999999ADDAU100001015AW1105GA1085+000615999GD14991+0006159GE19AGL   +99999+99999GF199999999999000611999999MA1102275084695REMMET09001/03/25 02:35:02 METAR KEIK 030935Z 21003KT 4SM BR OVC002 M03/M03 A3020 RMK AO2 T10341034
0217720534001612025010309557+40017-105050FM-15+1564KEIK V0209999C00005000615MN0024145N5-00375-00375999999ADDAU100001015AW1105GA1085+000615999GD14991+0006159GE19AGL   +99999+99999GF199999999999000611999999MA1102245084665REMMET09401/03/25 02:55:02 METAR KEIK 030955Z 00000KT 1 1/2SM BR OVC002 M04/M04 A3019 RMK AO2 T10371037
0213720534001612025010310157+40017-105050FM-15+1564KEIK V0202505N00155000615MN0016095N5-00365-00365999999ADDAU100001015AW1105GA1085+000615999GD14991+0006159GE19AGL   +99999+99999GF199999999999000611999999MA1102245084665REMMET09001/03/25 03:15:02 METAR KEIK 031015Z 25003KT 1SM BR OVC002 M04/M04 A3019 RMK AO2 T10361036
0217720534001612025010310357+40017-105050FM-15+1564KEIK V0201905N00155000615MN0020125N5-00395-00395999999ADDAU100001015AW1105GA1085+000615999GD14991+0006159GE19AGL   +99999+99999GF199999999999000611999999MA1102175084615REMMET09401/03/25 03:35:02 METAR KEIK 031035Z 19003KT 1 1/4SM BR OVC002 M04/M04 A3017 RMK AO2 T10391039
0216720534001612025010310557+40017-105050FM-15+1564KEIK V0209999C00005000615WN0008055N5-00405-00405999999ADDAU108002015AW1355GA1095+000615999GD15991+0006159GE19AGL   +99999+99999GF109991999999000611999999MA1102135084585REMMET09301/03/25 03:55:02 METAR KEIK 031055Z 00000KT 1/2SM FZFG VV002 M04/M04 A3016 RMK AO2 T10401040
0216720534001612025010311157+40017-105050FM-15+1564KEIK V0209999C00005000615WN0008055N5-00405-00405999999ADDAU108002015AW1355GA1095+000615999GD15991+0006159GE19AGL   +99999+99999GF109991999999000611999999MA1102105084555REMMET09301/03/25 04:15:02 METAR KEIK 031115Z 00000KT 1/2SM FZFG VV002 M04/M04 A3015 RMK AO2 T10401040
0214720534001612025010311357+40017-105050FM-15+1564KEIK V0202405N00155000615WN0012075N5-00405-00405999999ADDAU100001015AW1105GA1095+000615999GD15991+0006159GE19AGL   +99999+99999GF109991999999000611999999MA1102105084555REMMET09101/03/25 04:35:02 METAR KEIK 031135Z 24003KT 3/4SM BR VV002 M04/M04 A3015 RMK AO2 T10401040
0216720534001612025010311557+40017-105050FM-15+1564KEIK V0209999C00005000615WN0008055N5-00435-00435999999ADDAU108002015AW1355GA1095+000615999GD15991+0006159GE19AGL   +99999+99999GF109991999999000611999999MA1102075084525REMMET09301/03/25 04:55:02 METAR KEIK 031155Z 00000KT 1/2SM FZFG VV002 M04/M04 A3014 RMK AO2 T10431043
0216720534001612025010312157+40017-105050FM-15+1564KEIK V0209999C00005000615WN0008055N5-00435-00435999999ADDAU108002015AW1355GA1095+000615999GD15991+0006159GE19AGL   +99999+99999GF109991999999000611999999MA1102075084525REMMET09301/03/25 05:15:02 METAR KEIK 031215Z 00000KT 1/2SM FZFG VV002 M04/M04 A3014 RMK AO2 T10431043
0216720534001612025010312357+40017-105050FM-15+1564KEIK V0209999C00005000615WN0008055N5-00435-00435999999ADDAU108002015AW1355GA1095+000615999GD15991+0006159GE19AGL   +99999+99999GF109991999999000611999999MA1102075084525REMMET09301/03/25 05:35:02 METAR KEIK 031235Z 00000KT 1/2SM FZFG VV002 M04/M04 A3014 RMK AO2 T10431043
0216720534001612025010312557+40017-105050FM-15+1564KEIK V0200405N00155000615WN0008055N5-00455-00455999999ADDAU108002015AW1355GA1095+000615999GD15991+0006159GE19AGL   +99999+99999GF109991999999000611999999MA1102005084465REMMET09301/03/25 05:55:02 METAR KEIK 031255Z 04003KT 1/2SM FZFG VV002 M05/M05 A3012 RMK AO2 T10451045
0216720534001612025010313157+40017-105050FM-15+1564KEIK V0209999V00155000615WN0008055N5-00465-00465999999ADDAU108002015AW1355GA1095+000615999GD15991+0006159GE19AGL   +99999+99999GF109991999999000611999999MA1102005084465REMMET09301/03/25 06:15:02 METAR KEIK 031315Z VRB03KT 1/2SM FZFG VV002 M05/M05 A3012 RMK AO2 T10461046
0216720534001612025010313357+40017-105050FM-15+1564KEIK V0209999V00215000615WN0008055N5-00495-00495999999ADDAU108002015AW1355GA1095+000615999GD15991+0006159GE19AGL   +99999+99999GF109991999999000611999999MA1102005084465REMMET09301/03/25 06:35:02 METAR KEIK 031335Z VRB04KT 1/2SM FZFG VV002 M05/M05 A3012 RMK AO2 T10491049
0216720534001612025010313557+40017-105050FM-15+1564KEIK V0209999V00155000615WN0008055N5-00465-00465999999ADDAU108002015AW1355GA1095+000615999GD15991+0006159GE19AGL   +99999+99999GF109991999999000611999999MA1102035084495REMMET09301/03/25 06:55:02 METAR KEIK 031355Z VRB03KT 1/2SM FZFG VV002 M05/M05 A3013 RMK AO2 T10461046
0216720534001612025010314157+40017-105050FM-15+1564KEIK V0202705N00155000615WN0004025N5-00455-00455999999ADDAU108002015AW1355GA1095+000615999GD15991+0006159GE19AGL   +99999+99999GF109991999999000611999999MA1102005084465REMMET09301/03/25 07:15:02 METAR KEIK 031415Z 27003KT 1/4SM FZFG VV002 M05/M05 A3012 RMK AO2 T10451045
0217720534001612025010314357+40017-105050FM-15+1564KEIK V0209999V00155000615WN0000005N5-00465-00465999999ADDAU108002015AW1355GA1095+000615999GD15991+0006159GE19AGL   +99999+99999GF109991999999000611999999MA1102005084465REMMET09401/03/25 07:35:02 METAR KEIK 031435Z VRB03KT M1/4SM FZFG VV002 M05/M05 A3012 RMK AO2 T10461046
0217720534001612025010314557+40017-105050FM-15+1564KEIK V0202505N00315000615WN0000005N5-00495-00495999999ADDAU108002015AW1355GA1095+000615999GD15991+0006159GE19AGL   +99999+99999GF109991999999000611999999MA1102035084495REMMET09401/03/25 07:55:02 METAR KEIK 031455Z 25006KT M1/4SM FZFG VV002 M05/M05 A3013 RMK AO2 T10491049
0217720534001612025010315157+40017-105050FM-15+1564KEIK V0202605N00155000615WN0000005N5-00495-00495999999ADDAU108002015AW1355GA1095+000615999GD15991+0006159GE19AGL   +99999+99999GF109991999999000611999999MA1102035084495REMMET09401/03/25 08:15:02 METAR KEIK 031515Z 26003KT M1/4SM FZFG VV002 M05/M05 A3013 RMK AO2 T10491049
0216720534001612025010315357+40017-105050FM-15+1564KEIK V0209999C00005000615WN0004025N5-00495-00495999999ADDAU108002015AW1355GA1095+000615999GD15991+0006159GE19AGL   +99999+99999GF109991999999000611999999MA1102075084525REMMET09301/03/25 08:35:02 METAR KEIK 031535Z 00000KT 1/4SM FZFG VV002 M05/M05 A3014 RMK AO2 T10491049
0216720534001612025010315557+40017-105050FM-15+1564KEIK V0201705N00215000615WN0004025N5-00495-00495999999ADDAU108002015AW1355GA1095+000615999GD15991+0006159GE19AGL   +99999+99999GF109991999999000611999999MA1102075084525REMMET09301/03/25 08:55:02 METAR KEIK 031555Z 17004KT 1/4SM FZFG VV002 M05/M05 A3014 RMK AO2 T10491049
0214720534001612025010316157+40017-105050FM-15+1564KEIK V0209999V00215000915WN0012075N5-00455-00455999999ADDAU100001015AW1105GA1095+000915999GD15991+0009159GE19AGL   +99999+99999GF109991999999000911999999MA1102135084585REMMET09101/03/25 09:15:02 METAR KEIK 031615Z VRB04KT 3/4SM BR VV003 M04/M04 A3016 RMK AO2 T10451045
0213720534001612025010316357+40017-105050FM-15+1564KEIK V0209999C00005000615MN0016095N5-00435-00435999999ADDAU100001015AW1105GA1085+000615999GD14991+0006159GE19AGL   +99999+99999GF199999999999000611999999MA1102105084555REMMET09001/03/25 09:35:02 METAR KEIK 031635Z 00000KT 1SM BR OVC002 M04/M04 A3015 RMK AO2 T10431043
0217720534001612025010316557+40017-105050FM-15+1564KEIK V0209999V00155000615MN0028165N5-00415-00415999999ADDAU100001015AW1105GA1085+000615999GD14991+0006159GE19AGL   +99999+99999GF199999999999000611999999MA1102175084615REMMET09401/03/25 09:55:02 METAR KEIK 031655Z VRB03KT 1 3/4SM BR OVC002 M04/M04 A3017 RMK AO2 T10411041
0213720534001612025010317157+40017-105050FM-15+1564KEIK V0202805N00155000615MN0032195N5-00405-00405999999ADDAU100001015AW1105GA1085+000615999GD14991+0006159GE19AGL   +99999+99999GF199999999999000611999999MA1102175084615REMMET09001/03/25 10:15:02 METAR KEIK 031715Z 28003KT 2SM BR OVC002 M04/M04 A3017 RMK AO2 T10401040
0213720534001612025010317357+40017-105050FM-15+1564KEIK V0209999C00005000615MN0096565N5-00365-00365999999ADDAU100001015AW1105GA1085+000615999GD14991+0006159GE19AGL   +99999+99999GF199999999999000611999999MA1102105084555REMMET09001/03/25 10:35:02 METAR KEIK 031735Z 00000KT 6SM BR OVC002 M04/M04 A3015 RMK AO2 T10361036
0193720534001612025010317557+40017-105050FM-15+1564KEIK V0209999C00005001225MN0128755N5-00275-00275999999ADDGA1075+001225999GD13991+0012259GE19AGL   +99999+99999GF199999999999001221999999MA1102075084525REMMET08701/03/25 10:55:02 METAR KEIK 031755Z 00000KT 8SM BKN004 M03/M03 A3014 RMK AO2 T10271027
0212720534001612025010318157+40017-105050FM-15+1564KEIK V0209999V001552200059N0144845N5-00175-00175999999ADDGA1045+001525999GD12991+0015259GE19AGL   +99999+99999GF104995999999001521999999MA1102075084525REMMET08701/03/25 11:15:02 METAR KEIK 031815Z VRB03KT 9SM SCT005 M02/M02 A3014 RMK AO2 T10171017EQDD01      0ADE726
0168720534001612025010318357+40017-105050FM-15+1564KEIK V0209999C000052200059N0144845N5-00075-00075999999ADDGA1005+999999999GD10991+9999999GF100991999999999999999999MA1102035084495REMMET08401/03/25 11:35:02 METAR KEIK 031835Z 00000KT 9SM CLR M01/M01 A3013 RMK AO2 T10071007
0168720534001612025010318557+40017-105050FM-15+1564KEIK V0209999V001552200059N0160935N5+00105-00185999999ADDGA1005+999999999GD10991+9999999GF100991999999999999999999MA1101965084435REMMET08401/03/25 11:55:02 METAR KEIK 031855Z VRB03KT 10SM CLR 01/M02 A3011 RMK AO2 T00101018
0167720534001612025010319157+40017-105050FM-15+1564KEIK V0209999C000052200059N0144845N5+00245-00185999999ADDGA1005+999999999GD10991+9999999GF100991999999999999999999MA1101935084405REMMET08301/03/25 12:15:02 METAR KEIK 031915Z 00000KT 9SM CLR 02/M02 A3010 RMK AO2 T00241018
0168720534001612025010319357+40017-105050FM-15+1564KEIK V0209999C000052200059N0160935N5+00395-00245999999ADDGA1005+999999999GD10991+9999999GF100991999999999999999999MA1101865084345REMMET08401/03/25 12:35:02 METAR KEIK 031935Z 00000KT 10SM CLR 04/M02 A3008 RMK AO2 T00391024
0168720534001612025010319557+40017-105050FM-15+1564KEIK V0209999V001552200059N0160935N5+00495-00325999999ADDGA1005+999999999GD10991+9999999GF100991999999999999999999MA1101835084325REMMET08401/03/25 12:55:02 METAR KEIK 031955Z VRB03KT 10SM CLR 05/M03 A3007 RMK AO2 T00491032
0168720534001612025010320157+40017-105050FM-15+1564KEIK V0209999V001552200059N0160935N5+00575-00365999999ADDGA1005+999999999GD10991+9999999GF100991999999999999999999MA1101835084325REMMET08401/03/25 13:15:02 METAR KEIK 032015Z VRB03KT 10SM CLR 06/M04 A3007 RMK AO2 T00571036
0168720534001612025010320357+40017-105050FM-15+1564KEIK V0203105N002152200059N0160935N5+00635-00455999999ADDGA1005+999999999GD10991+9999999GF100991999999999999999999MA1101835084325REMMET08401/03/25 13:35:02 METAR KEIK 032035Z 31004KT 10SM CLR 06/M05 A3007 RMK AO2 T00631045
0168720534001612025010320557+40017-105050FM-15+1564KEIK V0209999V001552200059N0160935N5+00695-00445999999ADDGA1005+999999999GD10991+9999999GF100991999999999999999999MA1101835084325REMMET08401/03/25 13:55:02 METAR KEIK 032055Z VRB03KT 10SM CLR 07/M04 A3007 RMK AO2 T00691044
0168720534001612025010321157+40017-105050FM-15+1564KEIK V0209999V002652200059N0160935N5+00675-00545999999ADDGA1005+999999999GD10991+9999999GF100991999999999999999999MA1101795084295REMMET08401/03/25 14:15:02 METAR KEIK 032115Z VRB05KT 10SM CLR 07/M05 A3006 RMK AO2 T00671054
0168720534001612025010321357+40017-105050FM-15+1564KEIK V0203005N002152200059N0160935N5+00705-00625999999ADDGA1005+999999999GD10991+9999999GF100991999999999999999999MA1101835084325REMMET08401/03/25 14:35:02 METAR KEIK 032135Z 30004KT 10SM CLR 07/M06 A3007 RMK AO2 T00701062
0212720534001612025010321557+40017-105050FM-15+1564KEIK V0202905N002152200059N0160935N5+00735-00645999999ADDGA1025+079255999GD11991+0792559GE19AGL   +99999+99999GF102995999999079251999999MA1101835084325REMMET08701/03/25 14:55:02 METAR KEIK 032155Z 29004KT 10SM FEW260 07/M06 A3007 RMK AO2 T00731064EQDD01      0ADE726
0212720534001612025010322157+40017-105050FM-15+1564KEIK V0203005N002152200059N0160935N5+00755-00565999999ADDGA1025+079255999GD11991+0792559GE19AGL   +99999+99999GF102995999999079251999999MA1101865084345REMMET08701/03/25 15:15:02 METAR KEIK 032215Z 30004KT 10SM FEW260 08/M06 A3008 RMK AO2 T00751056EQDD01      0ADE726
0168720534001612025010322357+40017-105050FM-15+1564KEIK V0202705N001552200059N0160935N5+00835-00615999999ADDGA1005+999999999GD10991+9999999GF100991999999999999999999MA1101865084345REMMET08401/03/25 15:35:02 METAR KEIK 032235Z 27003KT 10SM CLR 08/M06 A3008 RMK AO2 T00831061
0168720534001612025010322557+40017-105050FM-15+1564KEIK V0209999C000052200059N0160935N5+00795-00625999999ADDGA1005+999999999GD10991+9999999GF100991999999999999999999MA1101865084345REMMET08401/03/25 15:55:02 METAR KEIK 032255Z 00000KT 10SM CLR 08/M06 A3008 RMK AO2 T00791062
0167720534001612025010323157+40017-105050FM-15+1564KEIK V0203305N001552200059N0144845N5+00805-00645999999ADDGA1005+999999999GD10991+9999999GF100991999999999999999999MA1101865084345REMMET08301/03/25 16:15:02 METAR KEIK 032315Z 33003KT 9SM CLR 08/M06 A3008 RMK AO2 T00801064
0167720534001612025010323357+40017-105050FM-15+1564KEIK V0209999C000052200059N0144845N5+00675-00655999999ADDGA1005+999999999GD10991+9999999GF100991999999999999999999MA1101865084345REMMET08301/03/25 16:35:02 METAR KEIK 032335Z 00000KT 9SM CLR 07/M06 A3008 RMK AO2 T00671065
0211720534001612025010323557+40017-105050FM-15+1564KEIK V0209999C000052200059N0144845N5+00285-00705999999ADDGA1025+091445999GD11991+0914459GE19AGL   +99999+99999GF102995999999091441999999MA1101905084375REMMET08601/03/25 16:55:02 METAR KEIK 032355Z 00000KT 9SM FEW300 03/M07 A3009 RMK AO2 T00281070EQDD01      0ADE726
0168720534001612025010400157+40017-105050FM-15+1564KEIK V0209999C000052200059N0160935N5+00085-00695999999ADDGA1005+999999999GD10991+9999999GF100991999999999999999999MA1101865084345REMMET08401/03/25 17:15:01 METAR KEIK 040015Z 00000KT 10SM CLR 01/M07 A3008 RMK AO2 T00081069
0167720534001612025010400357+40017-105050FM-15+1564KEIK V0209999C000052200059N0144845N5+00115-00655999999ADDGA1005+999999999GD10991+9999999GF100991999999999999999999MA1101865084345REMMET08301/03/25 17:35:01 METAR KEIK 040035Z 00000KT 9SM CLR 01/M07 A3008 RMK AO2 T00111065
0168720534001612025010400557+40017-105050FM-15+1564KEIK V0200805N002152200059N0160935N5+00125-00635999999ADDGA1005+999999999GD10991+9999999GF100991999999999999999999MA1101865084345REMMET08401/03/25 17:55:01 METAR KEIK 040055Z 08004KT 10SM CLR 01/M06 A3008 RMK AO2 T00121063
0167720534001612025010401157+40017-105050FM-15+1564KEIK V0200705N002152200059N0144845N5+00145-00425999999ADDGA1005+999999999GD10991+9999999GF100991999999999999999999MA1101865084345REMMET08301/03/25 18:15:01 METAR KEIK 040115Z 07004KT 9SM CLR 01/M04 A3008 RMK AO2 T00141042
0168720534001612025010401357+40017-105050FM-15+1564KEIK V0201005N002652200059N0160935N5+00075-00445999999ADDGA1005+999999999GD10991+9999999GF100991999999999999999999MA1101865084345REMMET08401/03/25 18:35:01 METAR KEIK 040135Z 10005KT 10SM CLR 01/M04 A3008 RMK AO2 T00071044
0212720534001612025010401557+40017-105050FM-15+1564KEIK V0209999C000052200059N0160935N5+00095-00445999999ADDGA1025+100585999GD11991+1005859GE19AGL   +99999+99999GF102995999999100581999999MA1101795084295REMMET08701/03/25 18:55:01 METAR KEIK 040155Z 00000KT 10SM FEW330 01/M04 A3006 RMK AO2 T00091044EQDD01      0ADE726
0168720534001612025010402157+40017-105050FM-15+1564KEIK V0209999C000052200059N0160935N5+00165-00425999999ADDGA1005+999999999GD10991+9999999GF100991999999999999999999MA1101865084345REMMET08401/03/25 19:15:01 METAR KEIK 040215Z 00000KT 10SM CLR 02/M04 A3008 RMK AO2 T00161042
0169720534001612025010402357+40017-105050FM-15+1564KEIK V0202205N002152200059N0160935N5-00085-00515999999ADDGA1005+999999999GD10991+9999999GF100991999999999999999999MA1101865084345REMMET08501/03/25 19:35:01 METAR KEIK 040235Z 22004KT 10SM CLR M01/M05 A3008 RMK AO2 T10081051
0169720534001612025010402557+40017-105050FM-15+1564KEIK V0209999V002152200059N0160935N5-00135-00495999999ADDGA1005+999999999GD10991+9999999GF100991999999999999999999MA1101835084325REMMET08501/03/25 19:55:01 METAR KEIK 040255Z VRB04KT 10SM CLR M01/M05 A3007 RMK AO2 T10131049
0168720534001612025010403157+40017-105050FM-15+1564KEIK V0209999C000052200059N0160935N5+00025-00435999999ADDGA1005+999999999GD10991+9999999GF100991999999999999999999MA1101835084325REMMET08401/03/25 20:15:02 METAR KEIK 040315Z 00000KT 10SM CLR 00/M04 A3007 RMK AO2 T00021043
0169720534001612025010403357+40017-105050FM-15+1564KEIK V0200205N002152200059N0160935N5+00005-00415999999ADDGA1005+999999999GD10991+9999999GF100991999999999999999999MA1101865084345REMMET08501/03/25 20:35:02 METAR KEIK 040335Z 02004KT 10SM CLR M00/M04 A3008 RMK AO2 T10001041
0169720534001612025010403557+40017-105050FM-15+1564KEIK V0209999C000052200059N0160935N5-00185-00515999999ADDGA1005+999999999GD10991+9999999GF100991999999999999999999MA1101905084375REMMET08501/03/25 20:55:02 METAR KEIK 040355Z 00000KT 10SM CLR M02/M05 A3009 RMK AO2 T10181051
0169720534001612025010404157+40017-105050FM-15+1564KEIK V0200405N001552200059N0160935N5-00225-00465999999ADDGA1005+999999999GD10991+9999999GF100991999999999999999999MA1101835084325REMMET08501/03/25 21:15:02 METAR KEIK 040415Z 04003KT 10SM CLR M02/M05 A3007 RMK AO2 T10221046
0168720534001612025010404357+40017-105050FM-15+1564KEIK V0209999C000052200059N0144845N5-00395-00555999999ADDGA1005+999999999GD10991+9999999GF100991999999999999999999MA1101795084295REMMET08401/03/25 21:35:02 METAR KEIK 040435Z 00000KT 9SM CLR M04/M06 A3006 RMK AO2 T10391055
0168720534001612025010404557+40017-105050FM-15+1564KEIK V0200105N001552200059N0128755N5-00415-00525999999ADDGA1005+999999999GD10991+9999999GF100991999999999999999999MA1101835084325REMMET08401/03/25 21:55:02 METAR KEIK 040455Z 01003KT 8SM CLR M04/M05 A3007 RMK AO2 T10411052
0168720534001612025010405157+40017-105050FM-15+1564KEIK V0203405N002152200059N0128755N5-00405-00545999999ADDGA1005+999999999GD10991+9999999GF100991999999999999999999MA1101795084295REMMET08401/03/25 22:15:02 METAR KEIK 040515Z 34004KT 8SM CLR M04/M05 A3006 RMK AO2 T10401054
0169720534001612025010405357+40017-105050FM-15+1564KEIK V0209999C000052200059N0160935N5-00415-00525999999ADDGA1005+999999999GD10991+9999999GF100991999999999999999999MA1101765084265REMMET08501/03/25 22:35:02 METAR KEIK 040535Z 00000KT 10SM CLR M04/M05 A3005 RMK AO2 T10411052
0169720534001612025010405557+40017-105050FM-15+1564KEIK V0209999C000052200059N0160935N5-00535-00615999999ADDGA1005+999999999GD10991+9999999GF100991999999999999999999MA1101735084235REMMET08501/03/25 22:55:02 METAR KEIK 040555Z 00000KT 10SM CLR M05/M06 A3004 RMK AO2 T10531061
0169720534001612025010406157+40017-105050FM-15+1564KEIK V0209999V001552200059N0160935N5-00655-00705999999ADDGA1005+999999999GD10991+9999999GF100991999999999999999999MA1101695084205REMMET08501/03/25 23:15:02 METAR KEIK 040615Z VRB03KT 10SM CLR M06/M07 A3003 RMK AO2 T10651070
0169720534001612025010406357+40017-105050FM-15+1564KEIK V0203005N002152200059N0160935N5-00615-00705999999ADDGA1005+999999999GD10991+9999999GF100991999999999999999999MA1101695084205REMMET08501/03/25 23:35:02 METAR KEIK 040635Z 30004KT 10SM CLR M06/M07 A3003 RMK AO2 T10611070
0169720534001612025010406557+40017-105050FM-15+1564KEIK V0203305N002152200059N0160935N5-00575-00645999999ADDGA1005+999999999GD10991+9999999GF100991999999999999999999MA1101695084205REMMET08501/03/25 23:55:02 METAR KEIK 040655Z 33004KT 10SM CLR M06/M06 A3003 RMK AO2 T10571064
003972053400161202501040659O+40017-105050SOD  +1564KEIK V020999999999999999999999999999+99999+99999999999ADDAT1AU22FZFG5AT2AU13BR  5AT3AW01FG  5
0169720534001612025010407157+40017-105050FM-15+1564KEIK V0203605N002152200059N0160935N5-00595-00645999999ADDGA1005+999999999GD10991+9999999GF100991999999999999999999MA1101665084175REMMET08501/04/25 00:15:02 METAR KEIK 040715Z 36004KT 10SM CLR M06/M06 A3002 RMK AO2 T10591064
0194720534001612025010407357+40017-105050FM-15+1564KEIK V0209999C00005001525MN0160935N5-00645-00675999999ADDGA1075+001525999GD13991+0015259GE19AGL   +99999+99999GF199999999999001521999999MA1101635084145REMMET08801/04/25 00:35:02 METAR KEIK 040735Z 00000KT 10SM BKN005 M06/M07 A3001 RMK AO2 T10641067
0205720534001612025010407557+40017-105050FM-15+1564KEIK V0200205N00155001225MN0144845N5-00555-00595999999ADDGA1085+001225999GD14991+0012251GE19AGL   +99999+99999GF199999999999001221999999MA1101565084085REMMET09901/04/25 00:55:02 METAR KEIK 040755Z 02003KT 9SM OVC004 M06/M06 A2999 RMK AO2 CIG 004V006 T10551059
0193720534001612025010408157+40017-105050FM-15+1564KEIK V0209999V00155000915MN0112655N5-00565-00565999999ADDGA1085+000915999GD14991+0009159GE19AGL   +99999+99999GF199999999999000911999999MA1101595084115REMMET08701/04/25 01:15:02 METAR KEIK 040815Z VRB03KT 7SM OVC003 M06/M06 A3000 RMK AO2 T10561056
0193720534001612025010408357+40017-105050FM-15+1564KEIK V0200305N00215000915MN0112655N5-00545-00545999999ADDGA1085+000915999GD14991+0009159GE19AGL   +99999+99999GF199999999999000911999999MA1101525084055REMMET08701/04/25 01:35:02 METAR KEIK 040835Z 03004KT 7SM OVC003 M05/M05 A2998 RMK AO2 T10541054
0217720534001612025010408557+40017-105050FM-15+1564KEIK V0200305N00265000615MN0040235N5-00545-00545999999ADDAU100001015AW1105GA1085+000615999GD14991+0006159GE19AGL   +99999+99999GF199999999999000611999999MA1101525084055REMMET09401/04/25 01:55:02 METAR KEIK 040855Z 03005KT 2 1/2SM BR OVC002 M05/M05 A2998 RMK AO2 T10541054
0217720534001612025010409157+40017-105050FM-15+1564KEIK V0209999V00155000615MN0040235N5-00535-00535999999ADDAU100001015AW1105GA1085+000615999GD14991+0006159GE19AGL   +99999+99999GF199999999999000611999999MA1101525084055REMMET09401/04/25 02:15:02 METAR KEIK 040915Z VRB03KT 2 1/2SM BR OVC002 M05/M05 A2998 RMK AO2 T10531053
0217720534001612025010409357+40017-105050FM-15+1564KEIK V0200305N00265000615MN0020125N5-00545-00545999999ADDAU100001015AW1105GA1085+000615999GD14991+0006159GE19AGL   +99999+99999GF199999999999000611999999MA1101525084055REMMET09401/04/25 02:35:02 METAR KEIK 040935Z 03005KT 1 1/4SM BR OVC002 M05/M05 A2998 RMK AO2 T10541054
0215720534001612025010409557+40017-105050FM-15+1564KEIK V0200205N00155000615MN0012075N5-00545-00545999999ADDAU100001015AW1105GA1085+000615999GD14991+0006159GE19AGL   +99999+99999GF199999999999000611999999MA1101495084035REMMET09201/04/25 02:55:02 METAR KEIK 040955Z 02003KT 3/4SM BR OVC002 M05/M05 A2997 RMK AO2 T10541054
0217720534001612025010410157+40017-105050FM-15+1564KEIK V0209999C00005000615MN0024145N5-00545-00545999999ADDAU100001015AW1105GA1085+000615999GD14991+0006159GE19AGL   +99999+99999GF199999999999000611999999MA1101495084035REMMET09401/04/25 03:15:02 METAR KEIK 041015Z 00000KT 1 1/2SM BR OVC002 M05/M05 A2997 RMK AO2 T10541054
0214720534001612025010410357+40017-105050FM-15+1564KEIK V0209999C00005000615WN0012075N5-00555-00555999999ADDAU100001015AW1105GA1095+000615999GD15991+0006159GE19AGL   +99999+99999GF109991999999000611999999MA1101425083975REMMET09101/04/25 03:35:02 METAR KEIK 041035Z 00000KT 3/4SM BR VV002 M05/M05 A2995 RMK AO2 T10551055
0217720534001612025010410557+40017-105050FM-15+1564KEIK V0203105N00215000615MN0024145N5-00545-00545999999ADDAU100001015AW1105GA1085+000615999GD14991+0006159GE19AGL   +99999+99999GF199999999999000611999999MA1101425083975REMMET09401/04/25 03:55:02 METAR KEIK 041055Z 31004KT 1 1/2SM BR OVC002 M05/M05 A2995 RMK AO2 T10541054
0217720534001612025010411157+40017-105050FM-15+1564KEIK V0203205N00155000615MN0024145N5-00545-00545999999ADDAU100001015AW1105GA1085+000615999GD14991+0006159GE19AGL   +99999+99999GF199999999999000611999999MA1101395083945REMMET09401/04/25 04:15:02 METAR KEIK 041115Z 32003KT 1 1/2SM BR OVC002 M05/M05 A2994 RMK AO2 T10541054
0214720534001612025010411357+40017-105050FM-15+1564KEIK V0203105N00215000615WN0012075N5-00555-00555999999ADDAU100001015AW1105GA1095+000615999GD15991+0006159GE19AGL   +99999+99999GF109991999999000611999999MA1101325083885REMMET09101/04/25 04:35:02 METAR KEIK 041135Z 31004KT 3/4SM BR VV002 M06/M06 A2992 RMK AO2 T10551055
0212720534001612025010411557+40017-105050FM-15+1564KEIK V0203405N00215000915WN0016095N5-00555-00555999999ADDAU100001015AW1105GA1095+000915999GD15991+0009159GE19AGL   +99999+99999GF109991999999000911999999MA1101295083855REMMET08901/04/25 04:55:02 METAR KEIK 041155Z 34004KT 1SM BR VV003 M06/M06 A2991 RMK AO2 T10551055
0214720534001612025010412157+40017-105050FM-15+1564KEIK V0209999C00005000915WN0012075N5-00565-00565999999ADDAU100001015AW1105GA1095+000915999GD15991+0009159GE19AGL   +99999+99999GF109991999999000911999999MA1101295083855REMMET09101/04/25 05:15:02 METAR KEIK 041215Z 00000KT 3/4SM BR VV003 M06/M06 A2991 RMK AO2 T10561056
0216720534001612025010412357+40017-105050FM-15+1564KEIK V0209999C00005000615WN0008055N5-00565-00565999999ADDAU108002015AW1355GA1095+000615999GD15991+0006159GE19AGL   +99999+99999GF109991999999000611999999MA1101225083795REMMET09301/04/25 05:35:02 METAR KEIK 041235Z 00000KT 1/2SM FZFG VV002 M06/M06 A2989 RMK AO2 T10561056
0216720534001612025010412557+40017-105050FM-15+1564KEIK V0200605N00215000615WN0004025N5-00585-00585999999ADDAU108002015AW1355GA1095+000615999GD15991+0006159GE19AGL   +99999+99999GF109991999999000611999999MA1101225083795REMMET09301/04/25 05:55:02 METAR KEIK 041255Z 06004KT 1/4SM FZFG VV002 M06/M06 A2989 RMK AO2 T10581058
0216720534001612025010413157+40017-105050FM-15+1564KEIK V0209999C00005000615WN0008055N5-00585-00585999999ADDAU108002015AW1355GA1095+000615999GD15991+0006159GE19AGL   +99999+99999GF109991999999000611999999MA1101225083795REMMET09301/04/25 06:15:02 METAR KEIK 041315Z 00000KT 1/2SM FZFG VV002 M06/M06 A2989 RMK AO2 T10581058
0216720534001612025010413357+40017-105050FM-15+1564KEIK V0200505N00155000615WN0008055N5-00585-00585999999ADDAU108002015AW1355GA1095+000615999GD15991+0006159GE19AGL   +99999+99999GF109991999999000611999999MA1101225083795REMMET09301/04/25 06:35:02 METAR KEIK 041335Z 05003KT 1/2SM FZFG VV002 M06/M06 A2989 RMK AO2 T10581058
0216720534001612025010413557+40017-105050FM-15+1564KEIK V0209999C00005000615WN0004025N5-00575-00575999999ADDAU108002015AW1355GA1095+000615999GD15991+0006159GE19AGL   +99999+99999GF109991999999000611999999MA1101195083765REMMET09301/04/25 06:55:02 METAR KEIK 041355Z 00000KT 1/4SM FZFG VV002 M06/M06 A2988 RMK AO2 T10571057
0216720534001612025010414157+40017-105050FM-15+1564KEIK V0203405N00315000615WN0008055N5-00565-00565999999ADDAU108002015AW1355GA1095+000615999GD15991+0006159GE19AGL   +99999+99999GF109991999999000611999999MA1101195083765REMMET09301/04/25 07:15:02 METAR KEIK 041415Z 34006KT 1/2SM FZFG VV002 M06/M06 A2988 RMK AO2 T10561056
0213720534001612025010414357+40017-105050FM-15+1564KEIK V0203105N00215000615MN0016095N5-00575-00575999999ADDAU100001015AW1105GA1085+000615999GD14991+0006159GE19AGL   +99999+99999GF199999999999000611999999MA1101155083735REMMET09001/04/25 07:35:02 METAR KEIK 041435Z 31004KT 1SM BR OVC002 M06/M06 A2987 RMK AO2 T10571057
0215720534001612025010414557+40017-105050FM-15+1564KEIK V0209999C00005000615MN0012075N5-00565-00565999999ADDAU100001015AW1105GA1085+000615999GD14991+0006159GE19AGL   +99999+99999GF199999999999000611999999MA1101155083735REMMET09201/04/25 07:55:02 METAR KEIK 041455Z 00000KT 3/4SM BR OVC002 M06/M06 A2987 RMK AO2 T10561056
0213720534001612025010415157+40017-105050FM-15+1564KEIK V0200205N00155000615MN0016095N5-00555-00555999999ADDAU100001015AW1105GA1085+000615999GD14991+0006159GE19AGL   +99999+99999GF199999999999000611999999MA1101125083715REMMET09001/04/25 08:15:02 METAR KEIK 041515Z 02003KT 1SM BR OVC002 M05/M05 A2986 RMK AO2 T10551055
0215720534001612025010415357+40017-105050FM-15+1564KEIK V0209999C00005000615MN0012075N5-00575-00575999999ADDAU100001015AW1105GA1085+000615999GD14991+0006159GE19AGL   +99999+99999GF199999999999000611999999MA1101125083715REMMET09201/04/25 08:35:02 METAR KEIK 041535Z 00000KT 3/4SM BR OVC002 M06/M06 A2986 RMK AO2 T10571057
0229720534001612025010415557+40017-105050FM-15+1564KEIK V0209999C00005000615MN0028165V5-00575-00575999999ADDAU100001015AW1105GA1085+000615999GD14991+0006159GE19AGL   +99999+99999GF199999999999000611999999MA1101125083715REMMET10601/04/25 08:55:02 METAR KEIK 041555Z 00000KT 1 3/4SM BR OVC002 M06/M06 A2986 RMK AO2 VIS 1 1/4V5 T10571057
0213720534001612025010416157+40017-105050FM-15+1564KEIK V0209999C00005000615MN0032195N5-00565-00565999999ADDAU100001015AW1105GA1085+000615999GD14991+0006159GE19AGL   +99999+99999GF199999999999000611999999MA1101125083715REMMET09001/04/25 09:15:02 METAR KEIK 041615Z 00000KT 2SM BR OVC002 M06/M06 A2986 RMK AO2 T10561056
0213720534001612025010416357+40017-105050FM-15+1564KEIK V0203405N00215000615MN0032195N5-00545-00545999999ADDAU100001015AW1105GA1085+000615999GD14991+0006159GE19AGL   +99999+99999GF199999999999000611999999MA1101125083715REMMET09001/04/25 09:35:02 METAR KEIK 041635Z 34004KT 2SM BR OVC002 M05/M05 A2986 RMK AO2 T10541054
0213720534001612025010416557+40017-105050FM-15+1564KEIK V0209999C00005000615MN0064375N5-00555-00555999999ADDAU100001015AW1105GA1085+000615999GD14991+0006159GE19AGL   +99999+99999GF199999999999000611999999MA1101125083715REMMET09001/04/25 09:55:02 METAR KEIK 041655Z 00000KT 4SM BR OVC002 M05/M05 A2986 RMK AO2 T10551055
0225720534001612025010417157+40017-105050FM-15+1564KEIK V0209999C00005000915MN0080475N5-00535-00535999999ADDAU100001015AW1105GA1085+000915999GD14991+0009151GE19AGL   +99999+99999GF199999999999000911999999MA1101055083655REMMET10201/04/25 10:15:02 METAR KEIK 041715Z 00000KT 5SM BR OVC003 M05/M05 A2984 RMK AO2 CIG 002V004 T10531053
0193720534001612025010417357+40017-105050FM-15+1564KEIK V0209999C00005000915MN0112655N5-00545-00545999999ADDGA1085+000915999GD14991+0009159GE19AGL   +99999+99999GF199999999999000911999999MA1101055083655REMMET08701/04/25 10:35:02 METAR KEIK 041735Z 00000KT 7SM OVC003 M05/M05 A2984 RMK AO2 T10541054
0213720534001612025010417557+40017-105050FM-15+1564KEIK V0209999C00005000915MN0064375N5-00525-00525999999ADDAU100001015AW1105GA1085+000915999GD14991+0009159GE19AGL   +99999+99999GF199999999999000911999999MA1100985083595REMMET09001/04/25 10:55:02 METAR KEIK 041755Z 00000KT 4SM BR OVC003 M05/M05 A2982 RMK AO2 T10521052
0193720534001612025010418157+40017-105050FM-15+1564KEIK V0209999C00005000915MN0112655N5-00515-00515999999ADDGA1085+000915999GD14991+0009159GE19AGL   +99999+99999GF199999999999000911999999MA1100955083565REMMET08701/04/25 11:15:02 METAR KEIK 041815Z 00000KT 7SM OVC003 M05/M05 A2981 RMK AO2 T10511051
0213720534001612025010418357+40017-105050FM-15+1564KEIK V0203405N00215000915MN0064375N5-00515-00515999999ADDAU100001015AW1105GA1085+000915999GD14991+0009159GE19AGL   +99999+99999GF199999999999000911999999MA1100885083505REMMET09001/04/25 11:35:02 METAR KEIK 041835Z 34004KT 4SM BR OVC003 M05/M05 A2979 RMK AO2 T10511051
0213720534001612025010418557+40017-105050FM-15+1564KEIK V0203305N00215000915MN0064375N5-00515-00515999999ADDAU100001015AW1105GA1085+000915999GD14991+0009159GE19AGL   +99999+99999GF199999999999000911999999MA1100855083475REMMET09001/04/25 11:55:02 METAR KEIK 041855Z 33004KT 4SM BR OVC003 M05/M05 A2978 RMK AO2 T10511051
0213720534001612025010419157+40017-105050FM-15+1564KEIK V0209999C00005000915MN0096565N5-00525-00525999999ADDAU100001015AW1105GA1085+000915999GD14991+0009159GE19AGL   +99999+99999GF199999999999000911999999MA1100815083445REMMET09001/04/25 12:15:02 METAR KEIK 041915Z 00000KT 6SM BR OVC003 M05/M05 A2977 RMK AO2 T10521052
0225720534001612025010419357+40017-105050FM-15+1564KEIK V0209999V00155001225MN0096565N5-00525-00525999999ADDAU100001015AW1105GA1085+001225999GD14991+0012251GE19AGL   +99999+99999GF199999999999001221999999MA1100785083425REMMET10201/04/25 12:35:02 METAR KEIK 041935Z VRB03KT 6SM BR OVC004 M05/M05 A2976 RMK AO2 CIG 003V005 T10521052
0205720534001612025010419557+40017-105050FM-15+1564KEIK V0203605N00265001225MN0112655N5-00515-00515999999ADDGA1085+001225999GD14991+0012251GE19AGL   +99999+99999GF199999999999001221999999MA1100715083365REMMET09901/04/25 12:55:02 METAR KEIK 041955Z 36005KT 7SM OVC004 M05/M05 A2974 RMK AO2 CIG 003V005 T10511051
0205720534001612025010420157+40017-105050FM-15+1564KEIK V0203305N00215001525MN0128755N5-00505-00505999999ADDGA1085+001525999GD14991+0015251GE19AGL   +99999+99999GF199999999999001521999999MA1100715083365REMMET09901/04/25 13:15:02 METAR KEIK 042015Z 33004KT 8SM OVC005 M05/M05 A2974 RMK AO2 CIG 004V006 T10501050
0193720534001612025010420357+40017-105050FM-15+1564KEIK V0203405N00155001525MN0128755N5-00505-00505999999ADDGA1085+001525999GD14991+0015259GE19AGL   +99999+99999GF199999999999001521999999MA1100715083365REMMET08701/04/25 13:35:02 METAR KEIK 042035Z 34003KT 8SM OVC005 M05/M05 A2974 RMK AO2 T10501050
0194720534001612025010420557+40017-105050FM-15+1564KEIK V0200205N00215001525MN0160935N5-00485-00485999999ADDGA1085+001525999GD14991+0015259GE19AGL   +99999+99999GF199999999999001521999999MA1100715083365REMMET08801/04/25 13:55:02 METAR KEIK 042055Z 02004KT 10SM OVC005 M05/M05 A2974 RMK AO2 T10481048
0194720534001612025010421157+40017-105050FM-15+1564KEIK V0200205N00265001525MN0160935N5-00495-00495999999ADDGA1085+001525999GD14991+0015259GE19AGL   +99999+99999GF199999999999001521999999MA1100755083395REMMET08801/04/25 14:15:02 METAR KEIK 042115Z 02005KT 10SM OVC005 M05/M05 A2975 RMK AO2 T10491049
0206720534001612025010421357+40017-105050FM-15+1564KEIK V0203605N00215001525MN0160935N5-00485-00485999999ADDGA1085+001525999GD14991+0015251GE19AGL   +99999+99999GF199999999999001521999999MA1100815083445REMMET10001/04/25 14:35:02 METAR KEIK 042135Z 36004KT 10SM OVC005 M05/M05 A2977 RMK AO2 CIG 004V006 T10481048
0206720534001612025010421557+40017-105050FM-15+1564KEIK V0203605N00215001525MN0160935N5-00465-00465999999ADDGA1085+001525999GD14991+0015251GE19AGL   +99999+99999GF199999999999001521999999MA1100855083475REMMET10001/04/25 14:55:02 METAR KEIK 042155Z 36004KT 10SM OVC005 M05/M05 A2978 RMK AO2 CIG 004V006 T10461046
0205720534001612025010422157+40017-105050FM-15+1564KEIK V0203605N00415001525MN0144845N5-00435-00435999999ADDGA1085+001525999GD14991+0015251GE19AGL   +99999+99999GF199999999999001521999999MA1100885083505REMMET09901/04/25 15:15:02 METAR KEIK 042215Z 36008KT 9SM OVC005 M04/M04 A2979 RMK AO2 CIG 004V006 T10431043
0206720534001612025010422357+40017-105050FM-15+1564KEIK V0203505N00265001525MN0160935N5-00445-00445999999ADDGA1085+001525999GD14991+0015251GE19AGL   +99999+99999GF199999999999001521999999MA1100915083535REMMET10001/04/25 15:35:02 METAR KEIK 042235Z 35005KT 10SM OVC005 M04/M04 A2980 RMK AO2 CIG 005V007 T10441044
0206720534001612025010422557+40017-105050FM-15+1564KEIK V0203405N00315001835MN0160935N5-00455-00455999999ADDGA1085+001835999GD14991+0018351GE19AGL   +99999+99999GF199999999999001831999999MA1100955083565REMMET10001/04/25 15:55:02 METAR KEIK 042255Z 34006KT 10SM OVC006 M04/M04 A2981 RMK AO2 CIG 005V008 T10451045
0205720534001612025010423157+40017-105050FM-15+1564KEIK V0203605N00315001525MN0144845N5-00435-00435999999ADDGA1085+001525999GD14991+0015251GE19AGL   +99999+99999GF199999999999001521999999MA1101025083625REMMET09901/04/25 16:15:02 METAR KEIK 042315Z 36006KT 9SM OVC005 M04/M04 A2983 RMK AO2 CIG 005V008 T10431043
0225720534001612025010423357+40017-105050FM-15+1564KEIK V0203505N00155001225MN0064375N5-00425-00425999999ADDAU100001015AW1105GA1085+001225999GD14991+0012251GE19AGL   +99999+99999GF199999999999001221999999MA1101085083685REMMET10201/04/25 16:35:02 METAR KEIK 042335Z 35003KT 4SM BR OVC004 M04/M04 A2985 RMK AO2 CIG 003V006 T10421042
0257720534001612025010423557+40017-105050FM-15+1564KEIK V0200305N00315000615MN0032195N5-00475-00475999999ADDAA101000021AU110030015AU200001015AW1105AW2715GA1085+000615999GD14991+0006159GE19AGL   +99999+99999GF199999999999000611999999MA1101085083685MW1715REMMET10001/04/25 16:55:02 METAR KEIK 042355Z 03006KT 2SM -SN BR OVC002 M05/M05 A2985 RMK AO2 P0000 T10471047
0238720534001612025010500157+40017-105050FM-15+1564KEIK V0200405N00215000615MN0016095N5-00485-00485999999ADDAA101000021AU100001015AW1105GA1085+000615999GD14991+0006159GE19AGL   +99999+99999GF199999999999000611999999MA1101155083735REMMET10401/04/25 17:15:01 METAR KEIK 050015Z 04004KT 1SM BR OVC002 M05/M05 A2987 RMK AO2 SNE0000 P0000 T10481048
0238720534001612025010500357+40017-105050FM-15+1564KEIK V0200405N00215000615MN0016095N5-00485-00485999999ADDAA101000021AU100001015AW1105GA1085+000615999GD14991+0006159GE19AGL   +99999+99999GF199999999999000611999999MA1101155083735REMMET10401/04/25 17:35:01 METAR KEIK 050035Z 04004KT 1SM BR OVC002 M05/M05 A2987 RMK AO2 SNE0000 P0000 T10481048
0214720534001612025010500557+40017-105050FM-15+1564KEIK V0200605N00155000615WN0012075N5-00485-00485999999ADDAU100001015AW1105GA1095+000615999GD15991+0006159GE19AGL   +99999+99999GF109991999999000611999999MA1101195083765REMMET09101/04/25 17:55:01 METAR KEIK 050055Z 06003KT 3/4SM BR VV002 M05/M05 A2988 RMK AO2 T10481048
0217720534001612025010501157+40017-105050FM-15+1564KEIK V0200505N00215000615MN0020125N5-00485-00485999999ADDAU100001015AW1105GA1085+000615999GD14991+0006159GE19AGL   +99999+99999GF199999999999000611999999MA1101195083765REMMET09401/04/25 18:15:01 METAR KEIK 050115Z 05004KT 1 1/4SM BR OVC002 M05/M05 A2988 RMK AO2 T10481048
0269720534001612025010501357+40017-105050FM-15+1564KEIK V0200405N00215000615MN0040235N5-00495-00495999999ADDAA101000021AU110030015AU200001015AW1105AW2715GA1085+000615999GD14991+0006159GE19AGL   +99999+99999GF199999999999000611999999MA1101195083765MW1715REMMET11201/04/25 18:35:01 METAR KEIK 050135Z 04004KT 2 1/2SM -SN BR OVC002 M05/M05 A2988 RMK AO2 SNB0129 P0000 T10491049
0257720534001612025010501557+40017-105050FM-15+1564KEIK V0209999C00005000615MN0048285N5-00495-00495999999ADDAA101000021AU110030015AU200001015AW1105AW2715GA1085+000615999GD14991+0006159GE19AGL   +99999+99999GF199999999999000611999999MA1101225083795MW1715REMMET10001/04/25 18:55:01 METAR KEIK 050155Z 00000KT 3SM -SN BR OVC002 M05/M05 A2989 RMK AO2 P0000 T10491049
0242720534001612025010502157+40017-105050FM-15+1564KEIK V0200605N00215000615MN0040235N5-00495-00495999999ADDAA101000021AU100001015AW1105GA1085+000615999GD14991+0006159GE19AGL   +99999+99999GF199999999999000611999999MA1101255083825REMMET10801/04/25 19:15:01 METAR KEIK 050215Z 06004KT 2 1/2SM BR OVC002 M05/M05 A2990 RMK AO2 SNE0156 P0000 T10491049
0242720534001612025010502357+40017-105050FM-15+1564KEIK V0200705N00215000615MN0028165N5-00515-00515999999ADDAA101000021AU100001015AW1105GA1085+000615999GD14991+0006159GE19AGL   +99999+99999GF199999999999000611999999MA1101225083795REMMET10801/04/25 19:35:01 METAR KEIK 050235Z 07004KT 1 3/4SM BR OVC002 M05/M05 A2989 RMK AO2 SNE0156 P0000 T10511051
0217720534001612025010502557+40017-105050FM-15+1564KEIK V0200805N00215000615MN0024145N5-00535-00535999999ADDAU100001015AW1105GA1085+000615999GD14991+0006159GE19AGL   +99999+99999GF199999999999000611999999MA1101225083795REMMET09401/04/25 19:55:01 METAR KEIK 050255Z 08004KT 1 1/2SM BR OVC002 M05/M05 A2989 RMK AO2 T10531053
0217720534001612025010503157+40017-105050FM-15+1564KEIK V0200705N00215000615MN0020125N5-00535-00535999999ADDAU100001015AW1105GA1085+000615999GD14991+0006159GE19AGL   +99999+99999GF199999999999000611999999MA1101255083825REMMET09401/04/25 20:15:02 METAR KEIK 050315Z 07004KT 1 1/4SM BR OVC002 M05/M05 A2990 RMK AO2 T10531053
0217720534001612025010503357+40017-105050FM-15+1564KEIK V0200705N00215000615MN0020125N5-00545-00545999999ADDAU100001015AW1105GA1085+000615999GD14991+0006159GE19AGL   +99999+99999GF199999999999000611999999MA1101295083855REMMET09401/04/25 20:35:02 METAR KEIK 050335Z 07004KT 1 1/4SM BR OVC002 M05/M05 A2991 RMK AO2 T10541054
0217720534001612025010503557+40017-105050FM-15+1564KEIK V0200505N00215000615MN0020125N5-00565-00565999999ADDAU100001015AW1105GA1085+000615999GD14991+0006159GE19AGL   +99999+99999GF199999999999000611999999MA1101325083885REMMET09401/04/25 20:55:02 METAR KEIK 050355Z 05004KT 1 1/4SM BR OVC002 M06/M06 A2992 RMK AO2 T10561056
0213720534001612025010504157+40017-105050FM-15+1564KEIK V0209999C00005000615MN0032195N5-00565-00565999999ADDAU100001015AW1105GA1085+000615999GD14991+0006159GE19AGL   +99999+99999GF199999999999000611999999MA1101325083885REMMET09001/04/25 21:15:02 METAR KEIK 050415Z 00000KT 2SM BR OVC002 M06/M06 A2992 RMK AO2 T10561056
0213720534001612025010504357+40017-105050FM-15+1564KEIK V0200405N00215000615MN0048285N5-00565-00565999999ADDAU100001015AW1105GA1085+000615999GD14991+0006159GE19AGL   +99999+99999GF199999999999000611999999MA1101355083915REMMET09001/04/25 21:35:02 METAR KEIK 050435Z 04004KT 3SM BR OVC002 M06/M06 A2993 RMK AO2 T10561056
0213720534001612025010504557+40017-105050FM-15+1564KEIK V0200505N00315000615MN0048285N5-00575-00575999999ADDAU100001015AW1105GA1085+000615999GD14991+0006159GE19AGL   +99999+99999GF199999999999000611999999MA1101395083945REMMET09001/04/25 21:55:02 METAR KEIK 050455Z 05006KT 3SM BR OVC002 M06/M06 A2994 RMK AO2 T10571057
0225720534001612025010505157+40017-105050FM-15+1564KEIK V0200505N00315000915MN0080475N5-00625-00625999999ADDAU100001015AW1105GA1085+000915999GD14991+0009151GE19AGL   +99999+99999GF199999999999000911999999MA1101425083975REMMET10201/04/25 22:15:02 METAR KEIK 050515Z 05006KT 5SM BR OVC003 M06/M06 A2995 RMK AO2 CIG 002V004 T10621062
0213720534001612025010505357+40017-105050FM-15+1564KEIK V0200405N00315000915MN0064375N5-00625-00625999999ADDAU100001015AW1105GA1085+000915999GD14991+0009159GE19AGL   +99999+99999GF199999999999000911999999MA1101495084035REMMET09001/04/25 22:35:02 METAR KEIK 050535Z 04006KT 4SM BR OVC003 M06/M06 A2997 RMK AO2 T10621062
0213720534001612025010505557+40017-105050FM-15+1564KEIK V0200505N00575000915MN0064375N5-00755-00755999999ADDAU100001015AW1105GA1085+000915999GD14991+0009159GE19AGL   +99999+99999GF199999999999000911999999MA1101565084085REMMET09001/04/25 22:55:02 METAR KEIK 050555Z 05011KT 4SM BR OVC003 M08/M08 A2999 RMK AO2 T10751075
0213720534001612025010506157+40017-105050FM-15+1564KEIK V0200405N00415000915MN0064375N5-00815-00815999999ADDAU100001015AW1105GA1085+000915999GD14991+0009159GE19AGL   +99999+99999GF199999999999000911999999MA1101595084115REMMET09001/04/25 23:15:02 METAR KEIK 050615Z 04008KT 4SM BR OVC003 M08/M08 A3000 RMK AO2 T10811081
0213720534001612025010506357+40017-105050FM-15+1564KEIK V0200305N00365000915MN0064375N5-00855-00865999999ADDAU100001015AW1105GA1085+000915999GD14991+0009159GE19AGL   +99999+99999GF199999999999000911999999MA1101635084145REMMET09001/04/25 23:35:02 METAR KEIK 050635Z 03007KT 4SM BR OVC003 M09/M09 A3001 RMK AO2 T10851086
0213720534001612025010506557+40017-105050FM-15+1564KEIK V0200405N00265000915MN0064375N5-00885-00895999999ADDAU100001015AW1105GA1085+000915999GD14991+0009159GE19AGL   +99999+99999GF199999999999000911999999MA1101665084175REMMET09001/04/25 23:55:02 METAR KEIK 050655Z 04005KT 4SM BR OVC003 M09/M09 A3002 RMK AO2 T10881089
005172053400161202501050659O+40017-105050SOD  +1564KEIK V020999999999999999999999999999+99999+99999999999ADDAT1AU18SN  5AT2AU22FZFG5AT3AU13BR  5AT4AW01FG  5
0213720534001612025010507157+40017-105050FM-15+1564KEIK V0200205N00265000915MN0064375N5-00905-00915999999ADDAU100001015AW1105GA1085+000915999GD14991+0009159GE19AGL   +99999+99999GF199999999999000911999999MA1101665084175REMMET09001/05/25 00:15:02 METAR KEIK 050715Z 02005KT 4SM BR OVC003 M09/M09 A3002 RMK AO2 T10901091
0225720534001612025010507357+40017-105050FM-15+1564KEIK V0200305N00315001225MN0080475N5-00915-00935999999ADDAU100001015AW1105GA1085+001225999GD14991+0012251GE19AGL   +99999+99999GF199999999999001221999999MA1101695084205REMMET10201/05/25 00:35:02 METAR KEIK 050735Z 03006KT 5SM BR OVC004 M09/M09 A3003 RMK AO2 CIG 003V005 T10911093
0233720534001612025010507557+40017-105050FM-15+1564KEIK V0200205N00215001225MN0096565N5-00925-00945999999ADDAU100001015AW1105GA1085+001225999GD14991+0012251GE19AGL   +99999+99999GF199999999999001221999999MA1101695084205REMMET11001/05/25 00:55:02 METAR KEIK 050755Z 02004KT 6SM BR OVC004 M09/M09 A3003 RMK AO2 SNE0751 CIG 003V005 T10921094
0201720534001612025010508107+40017-105050FM-15+1564KEIK V0200205N00215001225MN0112655N5-00905-00925999999ADDGA1085+001225999GD14991+0012259GE19AGL   +99999+99999GF199999999999001221999999MA1101735084235REMMET09501/05/25 01:10:02 METAR KEIK 050810Z 02004KT 7SM OVC004 M09/M09 A3004 RMK AO2 SNE0751 T10901092
0221720534001612025010508357+40017-105050FM-15+1564KEIK V0200205N00155000915MN0080475N5-00895-00905999999ADDAU100001015AW1105GA1085+000915999GD14991+0009159GE19AGL   +99999+99999GF199999999999000911999999MA1101765084265REMMET09801/05/25 01:35:02 METAR KEIK 050835Z 02003KT 5SM BR OVC003 M09/M09 A3005 RMK AO2 SNE0751 T10891090
0238720534001612025010508557+40017-105050FM-15+1564KEIK V0200105N00215000915MN0096565N5-00885-00895999999ADDAA101000021AU100001015AW1105GA1085+000915999GD14991+0009159GE19AGL   +99999+99999GF199999999999000911999999MA1101765084265REMMET10401/05/25 01:55:02 METAR KEIK 050855Z 01004KT 6SM BR OVC003 M09/M09 A3005 RMK AO2 SNE0852 P0000 T10881089
0250720534001612025010509157+40017-105050FM-15+1564KEIK V0200105N00155000915MN0112655N5-00885-00895999999ADDAA101000021AU110030015AW1715GA1085+000915999GD14991+0009159GE19AGL   +99999+99999GF199999999999000911999999MA1101795084295MW1715REMMET11001/05/25 02:15:02 METAR KEIK 050915Z 01003KT 7SM -SN OVC003 M09/M09 A3006 RMK AO2 SNE0852B0912 P0000 T10881089
0260720534001612025010509357+40017-105050FM-15+1564KEIK V0209999C00005001225MN0144845N5-00885-00895999999ADDAA101000021AU110030015AW1715GA1085+001225999GD14991+0012259GE19AGL   +99999+99999GF199999999999001221999999MA1101835084325MW1715REMMET12001/05/25 02:35:02 METAR KEIK 050935Z 00000KT 9SM -SN OVC004 M09/M09 A3007 RMK AO2 SNE0852B0912E0923B0925 P0000 T10881089
0193720534001612025010509557+40017-105050FM-15+1564KEIK V0209999C00005001225MN0144845N5-00885-00895999999ADDGA1085+001225999GD14991+0012259GE19AGL   +99999+99999GF199999999999001221999999MA1101835084325REMMET08701/05/25 02:55:02 METAR KEIK 050955Z 00000KT 9SM OVC004 M09/M09 A3007 RMK AO2 T10881089
0194720534001612025010510157+40017-105050FM-15+1564KEIK V0209999C00005000915MN0160935N5-00865-00875999999ADDGA1085+000915999GD14991+0009159GE19AGL   +99999+99999GF199999999999000911999999MA1101835084325REMMET08801/05/25 03:15:02 METAR KEIK 051015Z 00000KT 10SM OVC003 M09/M09 A3007 RMK AO2 T10861087
0194720534001612025010510357+40017-105050FM-15+1564KEIK V0209999C00005000915MN0160935N5-00865-00875999999ADDGA1085+000915999GD14991+0009159GE19AGL   +99999+99999GF199999999999000911999999MA1101865084345REMMET08801/05/25 03:35:02 METAR KEIK 051035Z 00000KT 10SM OVC003 M09/M09 A3008 RMK AO2 T10861087
0206720534001612025010510557+40017-105050FM-15+1564KEIK V0209999C00005001225MN0160935N5-00865-00875999999ADDGA1085+001225999GD14991+0012251GE19AGL   +99999+99999GF199999999999001221999999MA1101865084345REMMET10001/05/25 03:55:02 METAR KEIK 051055Z 00000KT 10SM OVC004 M09/M09 A3008 RMK AO2 CIG 003V005 T10861087
0206720534001612025010511157+40017-105050FM-15+1564KEIK V0209999C00005001525MN0160935N5-00855-00865999999ADDGA1085+001525999GD14991+0015251GE19AGL   +99999+99999GF199999999999001521999999MA1101905084375REMMET10001/05/25 04:15:02 METAR KEIK 051115Z 00000KT 10SM OVC005 M09/M09 A3009 RMK AO2 CIG 004V006 T10851086
0206720534001612025010511357+40017-105050FM-15+1564KEIK V0209999C00005001525MN0160935N5-00855-00865999999ADDGA1085+001525999GD14991+0015251GE19AGL   +99999+99999GF199999999999001521999999MA1101905084375REMMET10001/05/25 04:35:02 METAR KEIK 051135Z 00000KT 10SM OVC005 M08/M09 A3009 RMK AO2 CIG 004V006 T10851086
0270720534001612025010511557+40017-105050FM-15+1564KEIK V0209999C00005001525MN0160935N5-00845-00855999999ADDGA1075+001525999GA2075+008535999GA3085+024385999GD13991+0015259GD23991+0085359GD34991+0243859GE19AGL   +99999+99999GF199999999999001521999999MA1101905084375REMMET10201/05/25 04:55:02 METAR KEIK 051155Z 00000KT 10SM BKN005 BKN028 OVC080 M08/M09 A3009 RMK AO2 T10841085
0270720534001612025010512157+40017-105050FM-15+1564KEIK V0209999C00005008235MN0160935N5-00875-00885999999ADDGA1025+001835999GA2075+008235999GA3075+024385999GD11991+0018359GD23991+0082359GD33991+0243859GE19AGL   +99999+99999GF199999999999001831999999MA1101935084405REMMET10201/05/25 05:15:02 METAR KEIK 051215Z 00000KT 10SM FEW006 BKN027 BKN080 M09/M09 A3010 RMK AO2 T10871088
0270720534001612025010512357+40017-105050FM-15+1564KEIK V0209999C00005021345MN0160935N5-00955-00985999999ADDGA1025+008235999GA2075+021345999GA3085+024385999GD11991+0082359GD23991+0213459GD34991+0243859GE19AGL   +99999+99999GF199999999999008231999999MA1101965084435REMMET10201/05/25 05:35:02 METAR KEIK 051235Z 00000KT 10SM FEW027 BKN070 OVC080 M10/M10 A3011 RMK AO2 T10951098
0232720534001612025010512557+40017-105050FM-15+1564KEIK V0202005N00155019815MN0160935N5-00945-00965999999ADDGA1075+019815999GA2085+025915999GD13991+0198159GD24991+0259159GE19AGL   +99999+99999GF199999999999019811999999MA1101935084405REMMET09501/05/25 05:55:02 METAR KEIK 051255Z 20003KT 10SM BKN065 OVC085 M09/M10 A3010 RMK AO2 T10941096
0270720534001612025010513157+40017-105050FM-15+1564KEIK V0209999C00005021345MN0160935N5-00945-00975999999ADDGA1025+002445999GA2075+021345999GA3075+025915999GD11991+0024459GD23991+0213459GD33991+0259159GE19AGL   +99999+99999GF199999999999002441999999MA1102005084465REMMET10201/05/25 06:15:02 METAR KEIK 051315Z 00000KT 10SM FEW008 BKN070 BKN085 M09/M10 A3012 RMK AO2 T10941097
0270720534001612025010513357+40017-105050FM-15+1564KEIK V0209999C00005002445MN0160935N5-00945-00975999999ADDGA1075+002445999GA2075+007925999GA3075+021345999GD13991+0024459GD23991+0079259GD33991+0213459GE19AGL   +99999+99999GF199999999999002441999999MA1102005084465REMMET10201/05/25 06:35:02 METAR KEIK 051335Z 00000KT 10SM BKN008 BKN026 BKN070 M09/M10 A3012 RMK AO2 T10941097
0194720534001612025010513557+40017-105050FM-15+1564KEIK V0200805N00265002135MN0160935N5-00975-01005999999ADDGA1075+002135999GD13991+0021359GE19AGL   +99999+99999GF199999999999002131999999MA1102035084495REMMET08801/05/25 06:55:02 METAR KEIK 051355Z 08005KT 10SM BKN007 M10/M10 A3013 RMK AO2 T10971100
0213720534001612025010514157+40017-105050FM-15+1564KEIK V0209999C000052200059N0160935N5-00975-01005999999ADDGA1045+002135999GD12991+0021359GE19AGL   +99999+99999GF104995999999002131999999MA1102035084495REMMET08801/05/25 07:15:02 METAR KEIK 051415Z 00000KT 10SM SCT007 M10/M10 A3013 RMK AO2 T10971100EQDD01      0ADE726
